:100000000C94E5000C940D010C940D010C940D0161
:100010000C940D010C940D010C940D010C940D0128
:100020000C940D010C94E00C0C940D010C940D013A
:100030000C940D010C940D010C940D010C940D0108
:100040000C9455260C940D010C944B220C94922286
:100050000C940D010C940D010C940D010C940D01E8
:100060000C940D010C940D01005EBCE2613FDD8338
:10007000C29C7E20A3FD1F419DC3217FFCA2401E88
:100080005F01E3BD3E6082DC237D9FC1421CFEA078
:10009000E1BF5D0380DE3C62BEE0025CDF81633D68
:1000A0007C22C09E1D43A1FF4618FAA427799BC558
:1000B00084DA3866E5BB5907DB856739BAE4065848
:1000C0001947A5FB7826C49A653BD987045AB8E638
:1000D000A7F91B45C6987A24F8A6441A99C7257B28
:1000E0003A6486D85B05E7B98CD2306EEDB3510F18
:1000F0004E10F2AC2F7193CD114FADF3702ECC9208
:10010000D38D6F31B2EC0E50AFF1134DCE90722CF7
:100110006D33D18F0C52B0EE326C8ED0530DEFB1E7
:10012000F0AE4C1291CF2D73CA947628ABF51749D7
:100130000856B4EA6937D58B5709EBB536688AD4C7
:1001400095CB2977F4AA4816E9B7550B88D6346AB7
:100150002B7597C94A14F6A8742AC896154BA9F7A7
:10016000B6E80A54D7896B35000000002400270048
:100170002A0000000000250028002B0000000000DD
:1001800023002600290004040404040404040202D9
:100190000202020203030303030301020408102006
:1001A0004080010204081020010204081020000011
:1001B0000007000201000003040600000000000028
:1001C00000003A17A321F823331711241FBECFEFE5
:1001D000D8E0DEBFCDBF12E0A0E0B1E0E4EDF5E590
:1001E00002C005900D92AA37B107D9F713E0AAE72C
:1001F000B2E001C01D92A83AB107E1F711E0C8ECE6
:10020000D1E004C02297FE010E94D92AC23CD10746
:10021000C9F70E9440260C94DD2A0C940000CF936D
:10022000DF93BC018230910510F462E070E0A09190
:10023000A603B091A703ED01E0E0F0E040E050E05C
:1002400021C0888199818617970769F48A819B81EB
:10025000309719F09383828304C09093A70380930F
:10026000A603FE0134C06817790738F4411551051B
:1002700019F08417950708F4AC01FE018A819B816F
:100280009C01E9012097E9F641155105A9F1CA0140
:10029000861B970B049708F4BA01E0E0F0E02AC04F
:1002A0008D919C91119784179507F9F46417750740
:1002B00081F412968D919C911397309719F0938346
:1002C000828304C09093A7038093A603FD01329616
:1002D0004CC0CA01861B970BFD01E80FF91F619303
:1002E000719302978D939C9340C0FD01828193810D
:1002F0009C01D9011097A1F68091A4039091A503C8
:10030000892B41F480912502909126029093A503B8
:100310008093A40340912702509128024115510572
:1003200041F44DB75EB78091230290912402481B9F
:10033000590B2091A4033091A503CA01821B930B92
:100340008617970780F0AB014E5F5F4F84179507C4
:1003500050F0420F531F5093A5034093A403F9019B
:100360006193719302C0E0E0F0E0CF01DF91CF91A3
:100370000895CF93DF93009709F450C0EC012297C2
:100380001B821A82A091A603B091A703109709F1CE
:1003900040E050E0AC17BD0708F1BB83AA83FE0123
:1003A00021913191E20FF31FAE17BF0779F48D91C0
:1003B0009C911197280F391F2E5F3F4F3983288357
:1003C00012968D919C9113979B838A8341155105B9
:1003D00071F4D093A703C093A60320C012968D9109
:1003E0009C911397AD01009711F0DC01D3CFFA0176
:1003F000D383C28321913191E20FF31FCE17DF0720
:1004000069F488819981280F391F2E5F3F4FFA01C7
:10041000318320838A819B8193838283DF91CF9173
:1004200008954AE752E00E9435020895FB01DC017D
:100430008D91019080190110D9F3990B0895FB015A
:10044000DC0101900D920020E1F70895FB01DC0131
:100450004150504048F001900D920020C9F701C072
:100460001D9241505040E0F70895009731F4DA01B1
:100470008D919C91009709F40EC0DC01FB013D9128
:100480002191222319F03217C9F3FACF332331F423
:10049000DA011D921C928827992708951197AF932E
:1004A000BF93FB013D912191321771F4332321F465
:1004B00088279927119702C01E921196FA01A193DD
:1004C000B0839F918F910895222369F7EACFFC01B1
:1004D0008DE293E0928B818B768365831482108208
:1004E00089E0818381E08283838308956F927F9284
:1004F0008F929F92AF92BF92CF92DF92EF92FF9234
:100500000F931F93CF93DF93FB01EA01998180E062
:10051000288130E0282B392BE081E23231F0E832BB
:1005200021F0E03109F084C04BC04C814F3329F1F8
:10053000403420F44F3109F07BC02FC04F3579F0A3
:100540004F3709F075C0B901882777FD8095982F3E
:100550000E94582920E030E040E85DE32EC0359548
:100560002795B901882777FD8095982F0E945829F3
:1005700020E030E040E05EE320C0359527953595DA
:100580002795B901882777FD8095982F0E945829D3
:1005900020E030E040E85EE310C093E03595279519
:1005A0009A95E1F7B901882777FD8095982F0E94E9
:1005B000582920E030E040E05FE30E940C2A32C07E
:1005C000EF8035952795B901882777FD8095982F7D
:1005D0000E94582920E030E040E85EE30E94542861
:1005E0003B014C016E2D70E02E81621B7109882742
:1005F00077FD8095982F0E9458295B016C01FF249C
:1006000000E010E0C801B7010E9456299B01AC012F
:10061000C601B5010E94BD289B01AC01C401B30114
:100620000E9455289B01AC01832F942F752F00C089
:10063000262F382F492F572FB901CA01DF91CF91AB
:100640001F910F91FF90EF90DF90CF90BF90AF90F0
:100650009F908F907F906F9008950895EF92FF92F2
:100660000F931F938C017B01FC01858196810E9471
:100670005909F80185819681B7010E943809F8016E
:100680008581968164EB40E00E94F308F801858142
:1006900096810E946E08F82EF801858196810E944D
:1006A000590980E0FF2009F481E01F910F91FF902C
:1006B000EF900895EF92FF920F931F93CF93DF93E4
:1006C000EC018B017A018D819E810E9459098D81F7
:1006D0009E81B8010E9438098D819E816EE440E0C0
:1006E0000E94F3088D819E81F701628140E00E94A3
:1006F000F3088D819E81F701638140E00E94F30839
:10070000F8018081803139F08D819E81F70164810B
:1007100040E00E94F3088D819E810E9459098D81DD
:100720009E8168E448810E94F3088881882331F023
:100730006AE070E080E090E00E94AB268D819E81AF
:100740000E945909DF91CF911F910F91FF90EF9077
:100750000895CF92DF92EF92FF920F931F938C0137
:100760006B017A01FC01858196810E945909F8018B
:1007700085819681B6010E943809F80185819681AC
:100780006EEB40E00E94F308F801858196810E949B
:10079000A208F7018083F801858196810E94A20852
:1007A000F7018183F801858196810E94A208F701F3
:1007B0008283F801858196810E94A208F7018383D4
:1007C000F801858196810E94A208F7018483F801CF
:1007D000858196810E94A208F7018583F8018581B1
:1007E00096810E94A208F7018683F801858196818F
:1007F0000E94A208F7018783F801858196810E94F3
:10080000A208F7018087F801858196810E94590925
:100810001F910F91FF90EF90DF90CF900895DF939D
:10082000CF93CDB7DEB729970FB6F894DEBF0FBED2
:10083000CDBFAE014F5F5F4F0E94A9038981811137
:1008400081E029960FB6F894DEBF0FBECDBFCF91E1
:10085000DF910895CF92DF92EF92FF920F931F9353
:10086000CF93DF93EC016B01452BE1F08B81882363
:10087000C9F088818823B1F40E949D267B018C01F8
:10088000CE0160E070E00E940F04882359F40E94BA
:100890009D266E197F09800B910B6E5E7240804021
:1008A000904070F3F6016081693039F06930A0F052
:1008B0006A3041F06B3081F40AC06EE570E080E090
:1008C00090E00EC06CEB70E080E090E009C067E75C
:1008D00071E080E090E004C06EEE72E080E090E0B5
:1008E0000E94AB26DF91CF911F910F91FF90EF9067
:1008F000DF90CF900895CF93DF93EC018D819E819F
:100900000E9459098D819E810E9433098D819E81AB
:1009100064E448810E94F3088A81882339F0CE017B
:100920002196BE0140E050E00E942A04DF91CF9161
:1009300008950F931F938A010E94A903C80168E0DC
:100940000E945D0820E0F8019085891709F421E0F4
:10095000822F1F910F910895CF92DF92EF92FF9215
:100960000F931F93DF93CF93CDB7DEB729970FB6C1
:10097000F894DEBF0FBECDBF8C017B016E010894E1
:10098000C11CD11CA6010E949904882329F460E0AF
:1009900070E08EEF92EC05C0C801B701A6010E947D
:1009A000760229960FB6F894DEBF0FBECDBFCF9169
:1009B000DF911F910F91FF90EF90DF90CF900895FE
:1009C000DF93CF93CDB7DEB729970FB6F894DEBF8C
:1009D0000FBECDBF9C01FB0180818031D9F0C901E0
:1009E000AE014F5F5F4F0E9499048823A9F08D816B
:1009F0008F3371F0803418F48F3171F40BC08F3560
:100A000019F08F3749F402C08BE007C08CE005C0B5
:100A10008AE003C089E001C080E029960FB6F8940F
:100A2000DEBF0FBECDBFCF91DF910895CF92DF9291
:100A3000EF92FF921F93DF93CF93CDB7DEB7299745
:100A40000FB6F894DEBF0FBECDBF6C017B01142F33
:100A5000AE014F5F5F4F0E9499048823E1F0F701D8
:100A600080818031B9F01A3051F01A3050F01B30CB
:100A700021F01C3031F48FE705C08FE503C08FE310
:100A800001C08FE18D83C601B701AE014F5F5F4F9B
:100A90000E945A0381E029960FB6F894DEBF0FBE7C
:100AA000CDBFCF91DF911F91FF90EF90DF90CF905E
:100AB00008950F931F938B01CB0167E00E945D089F
:100AC00020E0F8019781891709F421E0822F1F9116
:100AD0000F910895EF92FF920F931F93CF93DF939F
:100AE000EC017B01042F8D819E810E94500810E053
:100AF00007C0CE01B7010E9459058823A9F00AC09A
:100B00008D819E81B7010E94A409882329F01017C6
:100B100059F4EFCF81E001C080E0DF91CF911F91C8
:100B20000F91FF90EF9008951F5F0117A8F3E8CF92
:100B3000EF92FF920F931F93DF93CF93CDB7DEB762
:100B400028970FB6F894DEBF0FBECDBF7C01462FAD
:100B50008E010F5F1F4FB8010E946A05C701B801DF
:100B60000E94AC0428960FB6F894DEBF0FBECDBF2E
:100B7000CF91DF911F910F91FF90EF900895CF9249
:100B8000DF92EF92FF920F931F93DF93CF93CDB736
:100B9000DEB728970FB6F894DEBF0FBECDBF7C013D
:100BA000693010F469E003C06D3008F06CE0F701C3
:100BB000618300E010E06E010894C11CD11C0DC0DF
:100BC000C701B601402F0E946A05C701B601F701AF
:100BD00041810E9416050F5F1F4FF701848190E04D
:100BE000081719076CF328960FB6F894DEBF0FBEEE
:100BF000CDBFCF91DF911F910F91FF90EF90DF90CC
:100C0000CF900895AF92BF92CF92DF92EF92FF9272
:100C10000F931F93DF93CF93CDB7DEB761970FB6D6
:100C2000F894DEBF0FBECDBF7C01FC0185819681AB
:100C30000E945008F70114826E010894C11CD11C57
:100C400079E0A72EB12CAC0EBD1E01E02BC0C70170
:100C5000B6010E945905882329F1F7018081882374
:100C600041F4C701B6010E942E03882311F0F70159
:100C70000083C701B601A5010E94A903F7011181F4
:100C8000C701B6010E94E004811718F4F7018181C1
:100C900004C0C701B6010E94E004F701818384818A
:100CA0008F5F8483F70185819681B6010E94A40934
:100CB000882369F661960FB6F894DEBF0FBECDBFEC
:100CC000CF91DF911F910F91FF90EF90DF90CF9028
:100CD000BF90AF9008958F929F92AF92BF92CF92A4
:100CE000DF92EF92FF920F931F93CF93DF937B01DD
:100CF0008C01EA012CE330E040E050E00E94A12AA0
:100D00006883C801B7012CE330E040E050E00E9466
:100D1000A12A122F032FF42EE52E622F732F842F7A
:100D2000952F2CE330E040E050E00E94A12A698337
:100D3000612F702F8F2D9E2D2CE330E040E050E08E
:100D40000E94A12A122F032FF42EE52E622F732F5B
:100D5000842F952F28E130E040E050E00E94A12A46
:100D60006A83612F702F8F2D9E2D28E130E040E0A7
:100D700050E00E94A12A79018A01C801B7016C5F85
:100D80007F4F8F4F9F4F27E030E040E050E00E94C0
:100D9000A12A6F5F6B8320E0AA24BB24650101C0F8
:100DA0002F5F822E9924F401EE54F84FCF01837007
:100DB0009070892B99F4CF0164E670E00E948E2A2E
:100DC000892B39F4CF0160E971E00E948E2A892BCA
:100DD00029F48EE691E0A0E0B0E004C08DE691E059
:100DE000A0E0B0E0A80EB91ECA1EDB1EC501A0E03F
:100DF000B0E0E816F9060A071B0790F62E83F40107
:100E0000EE54F84F83E0882E912C8E229F2281147D
:100E1000910499F4CF0164E670E00E948E2A892B38
:100E200039F4CF0160E971E00E948E2A892B29F400
:100E30008EE691E0A0E0B0E004C08DE691E0A0E095
:100E4000B0E0A81AB90ACA0ADB0A980187010A1990
:100E50001B092C093D09CF0164E670E00E948E2A2F
:100E60007C01CF0160E971E00E948E2AAC01EEE2C4
:100E7000F2E060E0613051F48114910449F4E1142E
:100E8000F10441F44115510529F002C0808103C0ED
:100E90008CE101C08DE190E0A0E0B0E008171907F7
:100EA0002A073B0740F0081B190B2A0B3B0B6F5F0F
:100EB00031966C30F9F66F5F6D83802F8F5F8C8376
:100EC000DF91CF911F910F91FF90EF90DF90CF9026
:100ED000BF90AF909F908F900895EF92FF920F93E5
:100EE0001F937B018C018091930290919402A091B9
:100EF0009502B0919602E816F9060A071B0771F0F1
:100F0000C801B70148E852E00E946B06E0929302E4
:100F1000F092940200939502109396021F910F9104
:100F2000FF90EF9008958091860290918702089536
:100F300060937E0270937F0280938002909381027F
:100F40002091290230912A0240912B0250912C02CB
:100F5000260F371F481F591F2093820230938302A8
:100F6000409384025093850282E090E09093870240
:100F7000809386020E949D2660938F027093900258
:100F800080939102909392020895EF92FF920F93B3
:100F90001F931CC02F5F3F4F4F4F5F4F20937E0228
:100FA00030937F02409380025093810288EE93E059
:100FB000A0E0B0E0E80EF91E0A1F1B1FE0928F02AE
:100FC000F092900200939102109392020E949D264B
:100FD000E0908F02F09090020091910210919202A5
:100FE0006E197F09800B910B20917E0230917F0258
:100FF0004091800250918102685E73408040904031
:1010000048F68091820290918302A0918402B0916F
:101010008502281739074A075B07E8F0E0917C0250
:10102000F0917D023097B9F0099561157105810540
:10103000910519F00E9498070EC020E030E08091E1
:10104000860290918702892B11F021E030E03093E5
:1010500087022093860260917E0270917F028091C8
:101060008002909181021F910F91FF90EF9008955F
:101070000E94C5070E946D078091880290E0089544
:101080000E94C5070E946D078091890290E0089533
:101090000E94C5070E946D0780918A0290E0089522
:1010A000FC0113861586148687E090E0128631973E
:1010B000009711F00197FACF0895DC0180E00BC092
:1010C000E82FF0E08D9190E0E827F927E859FF4FED
:1010D000E49161508E2F662399F70895DF92EF9285
:1010E000FF920F931F93FC01E08001811281F8941D
:1010F000F80181818E2981838281DE2CD0948D211B
:10110000828383E090E00E940427F80181818D2191
:1011100081838AE090E00E940427F801008178949E
:1011200085E390E00E94042780E010E0FF240E2178
:101130001F21012B09F081E01F910F91FF90EF908B
:10114000DF900895EF92FF920F931F93CF93DF9359
:101150007C0101E010E0C0E0D0E0C7010E946E0811
:101160008111102B000F2196C830D105B1F7812FC6
:10117000DF91CF911F910F91FF90EF9008951F93F2
:10118000CF93DF93FC011081C181D281912F909583
:1011900060FF12C0F8948A8189238A838981812B18
:1011A00089838AE090E00E9404278A81812B8A83C8
:1011B000789487E390E011C0F8948A8189238A8328
:1011C0008981812B898381E490E00E9404278A81B0
:1011D000812B8A83789485E090E00E940427DF9138
:1011E000CF911F910895CF92DF92EF92FF920F93CC
:1011F0001F93CF93DF938C01E42EFF24F394C0E080
:10120000D0E0C62EDD2460E08F2D90E08C219D2162
:10121000892B09F061E0C8010E94BF08FF0C2196EC
:10122000C830D10581F7EE20A9F4F894D8011196C1
:10123000ED91FC91129791818C91809598239183E7
:101240001196ED91FC91129792818C918095982343
:1012500092837894DF91CF911F910F91FF90EF903F
:10126000DF90CF9008956CEC40E00E94F308089561
:10127000EF92FF920F931F93CF93DF938C017B012B
:1012800065E540E00E94F308C0E0D0E0F701EC0F14
:10129000FD1FC801608140E00E94F3082196C8301C
:1012A000D105A1F7DF91CF911F910F91FF90EF90A2
:1012B0000895DF92EF92FF920F931F93CF93DF93E6
:1012C000FC010081C181D281F8948981D02ED09413
:1012D0008D21898378941DE7E02EFF24115059F168
:1012E00082E090E00E940427888190E08E219F2177
:1012F000892BA1F3F8948A818D218A838981802B9F
:101300008983789484EF91E00E940427F89489817E
:101310008D21898380E590E00E940427888110E078
:1013200090E0E822F922EF2809F411E0789484EAA9
:1013300091E00E940427812FDF91CF911F910F919F
:10134000FF90EF90DF900895AF92BF92DF92EF92FF
:10135000FF920F931F93CF93DF93EC015B018D8579
:10136000882309F061C0CE010E945909882329F41D
:101370001B861D861C8690E06BC0CE0160EF40E0AE
:101380000E94F30801E0DD24EE24FF24F394CE0153
:101390000E946E08182FCE010E946E08113019F4B9
:1013A0008130E1F439C0181709F58B85081770F4FE
:1013B00060E0FE01EE0DF11D838190E02F2D30E005
:1013C00082239323181619064CF003C060E0081717
:1013D00029F0093008F04CC00C874AC0FE01EE0D20
:1013E000F11D83818F29838361E009C0612FFE0194
:1013F000EE0DF11D9F2D9095838189238383CE016E
:101400000E94BF080F5FFF0C19F4E394FF24F394CC
:1014100087E08E1508F0BBCF013430F0DB86DD208D
:1014200011F581E08D871FC01B861D861C8690E00C
:10143000DE0120E030E0F501E20FF31F13968C91FE
:10144000139780832F5F3F4F11962830310599F70E
:10145000892FDF91CF911F910F91FF90EF90DF9037
:10146000BF90AF9008958B818823F1F291E0E0CF97
:10147000D02EBDCFFF920F931F938C01F62E862F97
:1014800060E00E946E278F2D90E0FC01E656FE4F33
:10149000E491D801EC938A579E4FFC016491E62FAA
:1014A000F0E0EE0FFF1FE458FE4F859194911296E5
:1014B0009C938E9311971B961C921B971D961C92C2
:1014C0001D971C961C92F80187E090E012863197D8
:1014D000009711F00197FACF1F910F91FF90089597
:1014E0000F931F938C01FC01868161E00E94AD2760
:1014F00084E690E00E940427F801868160E00E9463
:10150000AD271F910F910895CF92DF92EF92FF9236
:101510000F931F93CF93DF93D82EC92E282F392FE7
:10152000C9018C01C0E0D0E0E62EFF24F8018085DF
:1015300061E00E946E27B7010C2E02C07595679579
:101540000A94E2F76170F80180850E94AD27219628
:101550000F5F1F4FC430D10549F784E690E00E9429
:1015600004278D2D9C2D0E94700ADF91CF911F9131
:101570000F91FF90EF90DF90CF900895FF920F931F
:101580001F938C01F62EFC018481642F0E94AD27ED
:10159000F801858161E00E946E27F801858160E095
:1015A0000E94AD276F2D70E084E0759567958A9550
:1015B000E1F7C8010E94840AC8016F2D0E94840AC5
:1015C0001F910F91FF9008951F93CF93DF93EC012C
:1015D0008F8160E00E946E278C8160E00E94AD27C1
:1015E0008D8161E00E94AD278E8160E00E94AD2771
:1015F0008E8161E00E94AD278AE090E00E9404277E
:101600008F810E940128182F8E8160E00E94AD27F3
:10161000CE010E94700A112339F78F8161E00E9488
:101620006E278D8160E00E94AD27DF91CF911F91E1
:1016300008950F931F938C0141E00E94BE0AC801D8
:101640000E94E40A80E090E01F910F9108950F93AB
:101650001F938C0140E00E94BE0AC8010E94E40A68
:101660001F910F910895FC016585862F8460858701
:101670006C60CF010E94270B0895DF93CF9300D0B9
:1016800000D0CDB7DEB7DC0151968C915197481749
:1016900008F040E0198280E48A8384E18B8384E54A
:1016A0008C83FE01E40FF11D8181680F6068CD011C
:1016B0000E94270B0F900F900F900F90CF91DF910A
:1016C000089562E00E94270B089561E00E94270BB5
:1016D0000895EF92FF920F931F93CF93DF93EC0146
:1016E000498B188A8C8161E00E946E278D8161E0B0
:1016F0000E946E278E8161E00E946E278C8160E0DF
:101700000E94AD278E8160E00E94AD278D8160E050
:101710000E94AD2780E593EC0E9404278E01EE2401
:10172000FF24F801808561E00E946E27F801808522
:1017300060E00E94AD270894E11CF11C0F5F1F4F71
:10174000F4E0EF16F10469F780EA96E80E940427B6
:10175000CE0163E00E94840A80EA96E80E94042792
:10176000CE0162E00E94840A80E197E20E94042791
:10177000CE0162E00E94840A80E197E20E94042781
:10178000CE0168E00E94840A80E197E20E9404276B
:10179000CE0168E00E94270B80E197E20E940427B7
:1017A000CE0161E00E94270B80E197E20E940427AE
:1017B000CE0166E00E94270B80E197E20E94042799
:1017C000CE0162E00E94270B80E197E20E9404278D
:1017D000CE016CE00E94270B80E197E20E94042773
:1017E000DF91CF911F910F91FF90EF9008958F920D
:1017F0009F92AF92CF92EF920F934C01862FF401FC
:10180000648345832683A7820087E186C286A386F8
:1018100061E00E946E27F401858161E00E946E27DD
:10182000F401868161E00E946E2788E2F4018487DA
:10183000C40164E144E00E94690B0F91EF90CF90E6
:10184000AF909F908F900895AF92CF92EF920F93A9
:10185000FC01138212828EE392E091838083CF0198
:101860000E94F70B0F91EF90CF90AF900895611504
:1018700071058105910569F481E090E0A0E0B0E098
:101880008093970290939802A0939902B0939A0242
:1018900008C0609397027093980280939902909386
:1018A0009A0250939C0240939B02809170008E7F1D
:1018B000809370008091B0008C7F8093B000809105
:1018C000B100877F8093B1008091B6008F7D8093B7
:1018D000B600809170008D7F809370008091B10080
:1018E00084608093B1008091B1008C7F8093B100BF
:1018F00086E090E09093A3028093A2020895109254
:101900009D0210929E0210929F021092A0021092CD
:10191000A1028091A2029091A3028093B200E0E71D
:10192000F0E0808181608083089580919D02909194
:101930009E02A0919F02B091A0020196A11DB11D2F
:1019400080939D0290939E02A0939F02B093A00269
:1019500080919D0290919E02A0919F02B091A00261
:1019600020919702309198024091990250919A02E9
:1019700082179307A407B50710F18091A10288236D
:10198000F1F481E08093A10280919D0290919E02EA
:10199000A0919F02B091A002821B930BA40BB50BE8
:1019A00080939D0290939E02A0939F02B093A00209
:1019B000E0919B02F0919C0209951092A10208957A
:1019C0001F920F920FB60F9211242F933F934F93B4
:1019D0005F936F937F938F939F93AF93BF93EF9397
:1019E000FF938091A2029091A3028093B2000E9483
:1019F000950CFF91EF91BF91AF919F918F917F9146
:101A00006F915F914F913F912F910F900FBE0F906B
:101A10001F901895FC0186E492E0918380830895DD
:101A20000F931F938C010F5A1F4FCA01DB01F8015E
:101A300080839183A283B383BA01CD011F910F915B
:101A40000895FC01E35BFF4F208131814281538186
:101A5000B901CA010895FC01EF5AFF4F208131817D
:101A600042815381B901CA0108958F929F92AF922A
:101A7000BF92CF92DF92EF92FF920F931F93FC01E0
:101A80005DEC852E912C880E991ED4010C9110E0EE
:101A9000D801AA0FBB1FAA0FBB1FA80FB91FAB5AB3
:101AA000BF4FFE96C080D180E280F380FE97CD923A
:101AB000DD92ED92FC92139732E4A32EB12CAE0E80
:101AC000BF1E0F5F1F4FC8016EE170E00E948E2A9B
:101AD000880F991F880F991FE80FF91FEB5AFF4FC6
:101AE000C701B60120813181428153810E9454286F
:101AF000F5016083718382839383C8016EE170E096
:101B00000E948E2AD4018C938091B6028F7D80939F
:101B1000B6021F910F91FF90EF90DF90CF90BF9092
:101B2000AF909F908F9008952F923F924F925F9227
:101B30006F927F928F929F92AF92BF92CF92DF92DD
:101B4000EF92FF920F931F93DF93CF93CDB7DEB742
:101B50002A970FB6F894DEBF0FBECDBFFC0166A179
:101B600077A180A591A562A373A384A395A362A482
:101B700073A484A495A466A277A280A691A6A6A425
:101B8000B7A4C0A8D1A8A2A6B3A6C4A6D5A6268DE0
:101B9000378D40A151A126A737A740AB51AB26A84E
:101BA00037A840AC51AC22AA33AA44AA55AAE2AC49
:101BB000F3AC04AD15ADED82FE820F831887E6AA63
:101BC000F7AA00AF11AF8F01025C1F4F1A87098778
:101BD000D801ED90FD900D911C91E982FA820B8362
:101BE0001C83E2AEF3AE04AF15AF0E9455287B0113
:101BF0008C01C401B301A60195010E94552820E083
:101C000030E040E450E40E940C2A9B01AC01C80182
:101C1000B7010E94552821E735E046E057E40E94CD
:101C2000BD287B018C01C201B10120EC33EC41E6FF
:101C30005FE30E940C2A9B01AC01C801B7010E941E
:101C400055287B018C016D817E818F81988528E3E9
:101C50003AE640E350EC0E940C2A9B01AC01C8011B
:101C6000B7010E9455287B018C0169817A818B81A3
:101C70009C8127E735EF47E350E40E940C2A9B0143
:101C8000AC01C801B7010E945528E985FA85608337
:101C90007183828393838091B6028F7D8093B60295
:101CA0002A960FB6F894DEBF0FBECDBFCF91DF915D
:101CB0001F910F91FF90EF90DF90CF90BF90AF906A
:101CC0009F908F907F906F905F904F903F902F905C
:101CD00008954F925F926F927F928F929F92AF92F0
:101CE000BF92CF92DF92EF92FF920F931F93DF93F9
:101CF000CF9300D000D0CDB7DEB78C01FC01868138
:101D00009781A085B18582839383A483B5838285DF
:101D10009385A485B58586839783A087B1878685BB
:101D20009785A089B18982879387A487B587EA5B65
:101D3000FF4F808191810E94D8219B01AC01D80185
:101D40001E966D937D938D939C93519756968D908F
:101D50009D90AD90BC905997F801828A938AA48A8D
:101D6000B58A428C538C648C758C56964D925D92DC
:101D70006D927C9259975E968D919D910D90BC913C
:101D8000A02D89839A83AB83BC83828F938FA48F8A
:101D9000B58F62817381848195810E9455286B0182
:101DA0007C01D80116966D917D918D919C9119972A
:101DB0001A962D913D914D915C911D970E94552849
:101DC00020E030E040E450E40E940C2A9B01AC018A
:101DD000C701B6010E94552821E735E046E057E4E7
:101DE0000E94BD286B017C01C501B40120EC33ECDD
:101DF00041E65FE30E940C2A9B01AC01C701B601DA
:101E00000E9455286B017C01C301B20128E33AE628
:101E100040E350EC0E940C2A9B01AC01C701B601C3
:101E20000E9455286B017C0169817A818B819C819C
:101E300027E735EF47E350E40E940C2A9B01AC01F1
:101E4000C701B6010E945528DC019B01AC01F801D5
:101E5000268F378F40A351A3035B1F4FCB01F8019F
:101E600080839183A283B3838091B6028F7E809317
:101E7000B6020F900F900F900F90CF91DF911F91AE
:101E80000F91FF90EF90DF90CF90BF90AF909F9019
:101E90008F907F906F905F904F9008950F931F9356
:101EA000CF93DF93EC01FC01E85BFF4F6081718110
:101EB0008281938168537F4F8F4F9F4F60837183DF
:101EC0008283938328EC30E040E050E00E94A12A16
:101ED000611571058105910519F4CE010E94690E05
:101EE000C85BDF4F688179818A819B81C854D0406B
:101EF00020E137E240E050E00E94A12A611571051F
:101F00008105910591F5CE010E94940D4E855F8566
:101F1000688979898CE793E022E030E00E942A26E4
:101F20008CE793E06CE20E9472244E8D5F8D68A175
:101F300079A18CE793E022E030E00E942A268CE72A
:101F400093E06CE20E947224EE96488159816A8186
:101F50007B81EE978CE793E022E030E00E942A2616
:101F60008CE793E06CE20E9472248E01085B1F4FA5
:101F7000F801608171818281938120E63AEE40E030
:101F800050E00E94A12A611571058105910541F477
:101F9000CE010E94350DF801108211821282138247
:101FA000DF91CF911F910F910895FC0186E492E09B
:101FB00091838083CF010E944F2608950F931F9332
:101FC000CF93DF93EC0186E492E099838883C85B2A
:101FD000DF4F188219821A821B82C854D04086E2D1
:101FE00090E00E945226182F092F66E071E041E030
:101FF0000E94F321FE01EA5BFF4F108301831092E0
:10200000F3021092F202CF5ADF4F80E090E0AAE78D
:10201000B3E488839983AA83BB83C155D040808170
:1020200091810E94D821FE01E35BFF4F60837183A1
:10203000828393839E01BF01AE01405F5F4FFB012E
:1020400080819181A281B381F90182839383A483EA
:10205000B583828B938BA48BB58B2C5F3F4F24175A
:10206000350769F7FE01B2969E012E5C3F4F8E8DBB
:102070009F8DA8A1B9A180839183A283B383808B14
:10208000918BA28BB38B3496E217F30781F7CE5B6B
:10209000DF4F80E090E0A0E0B0E088839983AA83DE
:1020A000BB83C254D040FE01E353FF4F10829E0118
:1020B0002B5A3F4FEE96AF0188819981AA81BB814F
:1020C000F90181939193A193B1939F01E417F507CF
:1020D00099F7DF91CF911F910F9108950895CF93B4
:1020E000DF93EC018D810E944C272C818558934011
:1020F000E4F0222319F481E08C831EC00E949D2607
:10210000288139814A815B81621B730B840B950B9B
:102110006B3F71058105910578F00E949D266883CB
:1021200079838A839B8381E008C0222329F01C8263
:10213000188219821A821B8280E0DF91CF91089564
:10214000FC01862F10821182128213821482658311
:1021500060E00E946E270895CF93DF93EC018A819F
:102160009B81009711F00E94B9018885998500979D
:1021700011F00E94B901DF91CF9108950F931F9341
:10218000CF93DF938C01EB0188818C3319F46115B7
:10219000710549F4F80112868CE793E06BE071E079
:1021A0000E942D264CC0F8011382128211861086DF
:1021B0001182108214821582168217828CE793E0B6
:1021C00067E171E00E942D26CE0165E271E00E9478
:1021D0001102BC01009751F08CE793E00E942D267C
:1021E0008CE793E069E271E00E942D2680E090E0A8
:1021F00065E271E00E941102BC01009751F08CE78A
:1022000093E00E942D268CE793E061E371E00E9449
:102210002D2680E090E065E271E00E941102BC0191
:10222000009751F08CE793E00E942D268CE793E015
:1022300069E371E00E942D2681E0F8018287DF9139
:10224000CF911F910F910895FC01E45DFE4F119213
:1022500011921192119211921192718360838CE705
:1022600093E061E471E00E942D260895AF92BF9241
:10227000CF92DF92EF92FF920F931F93CF93DF9352
:102280006C015C0180E3E82E81E0F82EEC0CFD1C73
:1022900030C08CE793E00E947224D7018D919C910D
:1022A000119701968D939C9324C010828CE793E044
:1022B00069E471E00E948C258CE793E0B5010E94EF
:1022C0008C258CE793E06DE50E949A24F70111823A
:1022D00010828FE690E00E945226EC01B5010E9428
:1022E000BE10209731F0CE010E94AC10CE010E94AA
:1022F0004F268CE793E00E945323181619060CF51D
:10230000D7018D919C918B529140DCF48CE793E046
:1023100065E571E00E942D26F701008111818CE7AF
:1023200093E00E9484230C0D1D1DD8018C93D701CE
:10233000ED91FC91EC0DFD1D60816A3009F0A9CF93
:10234000B4CFDF91CF911F910F91FF90EF90DF906D
:10235000CF90BF90AF900895FC018EE492E09183FE
:1023600080830895EF92FF920F931F93CF93DF9393
:102370007C018B016115710549F1FC01C4A1D5A156
:10238000209749F4FB0101900020E9F73197CF0134
:10239000861B970B10C0CB01BE010E94160200974E
:1023A000A9F0CE010E94B901D8010D900020E9F7F3
:1023B000CD01801B910B0E940F01F70184A395A30F
:1023C000B8010E941F0281E0F70187A3DF91CF913E
:1023D0001F910F91FF90EF900895EF92FF920F934E
:1023E0001F93CF93DF937C018B016115710589F1F8
:1023F000FC01C2A1D3A1209789F4FB010190002028
:10240000E9F73197CF01861B970B0E940F01F70167
:1024100082A393A3B8010E941F021BC0CB01BE017F
:102420000E9416020097A9F0CE010E94B901D801BE
:102430000D900020E9F7CD01801B910B0E940F0148
:10244000F70182A393A3B8010E941F0281E0F70164
:1024500086A3DF91CF911F910F91FF90EF90089588
:102460000F931F93CF93DF93EC016E857F8588894F
:1024700099892E8D3F8D48A159A10E94B9288823A2
:10248000F1F088A599A560E041E00E943D0B88A588
:1024900099A56BE571E00E948C254E855F85688962
:1024A000798988A599A522E030E00E942A268E85A8
:1024B0009F85A889B9898E8F9F8FA8A3B9A36A81A8
:1024C0007B818C819D812A893B894C895D890E9411
:1024D000B9288823F1F088A599A560E042E00E9420
:1024E0003D0B88A599A561E671E00E948C254A8183
:1024F0005B816C817D8188A599A522E030E00E94F6
:102500002A268A819B81AC81BD818A8B9B8BAC8B77
:10251000BD8B6E817F81888599852E893F89488D05
:10252000598D0E94B9288823F1F088A599A560E00B
:1025300043E00E943D0B88A599A567E671E00E94E3
:102540008C254E815F816885798588A599A522E0D3
:1025500030E00E942A268E819F81A885B9858E8BC6
:102560009F8BA88FB98F8EA1882369F088A599A524
:102570006CE042E00E943D0B6AA17BA188A599A571
:102580000E948C251EA28FA1882369F088A599A599
:102590006CE043E00E943D0B6CA17DA188A599A54C
:1025A0000E948C251FA20E949307892B81F188A588
:1025B00099A56CE041E00E943D0B08A519A50E9479
:1025C0004808BC01C8014AE050E00E94792588A56E
:1025D00099A56DE671E00E948C2508A519A50E94B9
:1025E0004008BC01C8014AE050E00E94792588A556
:1025F00099A56DE671E00E948C2508A519A50E9499
:102600003808BC01C8014AE050E00E947925DF91FA
:10261000CF911F910F910895FC018EE492E0918378
:102620008083CF010E944F2608958F929F92AF9290
:10263000CF92EF92FF920F931F934C018EE492E0A2
:10264000F4019183808313A212A215A214A282E145
:1026500090E00E945226182FF92E63E044E025E016
:1026600006E077E0E72E58E0C52E39E0A32E0E9461
:10267000240CF40110A7F1A681E086A387A31F9183
:102680000F91FF90EF90CF90AF909F908F90089513
:10269000FC0186E592E0918380830895FC0122810C
:1026A000338144815581B901CA010895FC01268115
:1026B000378140855185B901CA0108950F931F9351
:1026C000DB018A019B01FC01068317832087318788
:1026D000BA01CD011F910F9108958F929F92AF92F1
:1026E000BF92CF92DF92EF92FF920F931F939C01C4
:1026F0005CEC852E912C880E991ED4010C9110E073
:102700000B5E1F4FF801EE0FFF1FEE0FFF1FE80FCC
:10271000F91F2A5B3F4FD901CD90DD90ED90FC90E1
:1027200026543040C082D182E282F38290E5A92E05
:10273000B12CA20EB31E04511040C8016EE170E02E
:102740000E948E2AFC017596EE0FFF1FEE0FFF1FF1
:10275000E20FF31FC701B60120813181428153810D
:102760000E945428F5016083718382839383C8019A
:102770006EE170E00E948E2AD4018C938091B602A3
:102780008F7D8093B6021F910F91FF90EF90DF90A5
:10279000CF90BF90AF909F908F9008952F923F92CF
:1027A0004F925F926F927F928F929F92AF92BF9261
:1027B000CF92DF92EF92FF920F931F93DF93CF930D
:1027C00000D000D000D0CDB7DEB76C01DC019E9602
:1027D0006D917D918D919C91D197F60162A773A720
:1027E00084A795A742A853A864A875A89E964D9261
:1027F0005D926D927C92D197D6968D909D90AD9082
:10280000BC90D99782AA93AAA4AAB5AA26A137A157
:1028100040A551A5D6962D933D934D935C93D997A2
:10282000EEE32E2E312C2C0C3D1CF101E080F180CA
:1028300002811381DA96ED92FD920D931C93DD9740
:10284000F601EE5BFF4FE080F18002811381D10140
:10285000ED92FD920D931C93139786010A5B1F4F17
:102860001E830D83D801ED90FD900D911C91E9829E
:10287000FA820B831C83E082F182028313830E941D
:1028800055287B018C01C301B201A50194010E946E
:10289000552820E030E040E450E40E940C2A9B01DF
:1028A000AC01C801B7010E94552821E735E046E098
:1028B00057E40E94BD287B018C01F60162AD73AD27
:1028C00084AD95AD20EC33EC41E65FE30E940C2A29
:1028D0009B01AC01C801B7010E9455287B018C0106
:1028E000D1016D917D918D919C9128E33AE640E371
:1028F00050EC0E940C2A9B01AC01C801B7010E9458
:1029000055287B018C0169817A818B819C8127E725
:1029100035EF47E350E40E940C2A9B01AC01C8014B
:10292000B7010E945528ED81FE8160837183828307
:10293000938326960FB6F894DEBF0FBECDBFCF911E
:10294000DF911F910F91FF90EF90DF90CF90BF909C
:10295000AF909F908F907F906F905F904F903F903F
:102960002F9008954F925F926F927F928F929F92D5
:10297000AF92BF92CF92DF92EF92FF920F931F938D
:10298000DF93CF9300D000D0CDB7DEB78C01FC0130
:1029900086859785A089B18982879387A487B58723
:1029A00082899389A489B58986879787A08BB18B03
:1029B00086899789A08DB18D828B938BA48BB58BE3
:1029C000E65BFF4F808191810E94D8219B01AC0181
:1029D000D80156966D937D938D939C9359975E96EF
:1029E0008D909D90AD90BC909197F801828E938EC2
:1029F000A48EB58E42A053A064A075A05E964D92A1
:102A00005D926D927C92919796968D919D910D908D
:102A1000BC91A02D89839A83AB83BC8382A393A3AB
:102A2000A4A3B5A362857385848595850E945528E6
:102A30006B017C01D8011E966D917D918D919C91C9
:102A4000519752962D913D914D915C9155970E94D1
:102A5000552820E030E040E450E40E940C2A9B011D
:102A6000AC01C701B6010E94552829E939E948E8B7
:102A700054E40E94BD286B017C01C501B40128EF1C
:102A800038EF48E25FE30E940C2A9B01AC01C701CA
:102A9000B6010E9455286B017C01C301B2012DEAE9
:102AA00037E340E150EC0E940C2A9B01AC01C701C6
:102AB000B6010E9455286B017C0169817A818B8166
:102AC0009C812EE731E845E250E40E940C2A9B01EC
:102AD000AC01C701B6010E945528DC019B01AC0185
:102AE000F80126A337A340A751A7CB018283938384
:102AF000A483B5830F900F900F900F90CF91DF912B
:102B00001F910F91FF90EF90DF90CF90BF90AF900B
:102B10009F908F907F906F905F904F9008950F934C
:102B20001F93CF93DF93EC01FC01E45BFF4F6081C7
:102B300071818281938168537F4F8F4F9F4F608354
:102B400071838283938328EC30E040E050E00E9460
:102B5000A12A611571058105910519F4CE010E9424
:102B6000B214C45BDF4F688179818A819B81CC5428
:102B7000D04020E137E240E050E00E94A12A6115F8
:102B8000710581059105A1F5CE010E94CE134E89F4
:102B90005F89688D798D8CE793E022E030E00E94B8
:102BA0002A268CE793E06CE20E9472244EA15FA17A
:102BB00068A579A58CE793E022E030E00E942A2600
:102BC0008CE793E06CE20E947224CA5BDF4F48817D
:102BD00059816A817B81C654D0408CE793E022E022
:102BE00030E00E942A268CE793E06CE20E94722477
:102BF0008E01045B1F4FF801608171818281938196
:102C000020E63AEE40E050E00E94A12A61157105ED
:102C10008105910541F4CE010E946D13F8011082E7
:102C2000118212821382DF91CF911F910F9108952B
:102C3000FC0186E592E091838083CF010E944F26BC
:102C400008950F931F93CF93DF93EC0186E592E0F5
:102C500099838883C45BDF4F188219821A821B8292
:102C6000CC54D04086E290E00E945226182F092FC3
:102C700065E771E040E00E94F321FE01E65BFF4F53
:102C8000108301831092F3021092F20280E090E030
:102C9000AAE7B3E48E839F83A887B9878081918157
:102CA0000E94D8216A837B838C839D83FE019E01D1
:102CB000205F3F4F8A819B81AC81BD818287938752
:102CC000A487B587828F938FA48FB58F3496E21730
:102CD000F30781F7FE01BA969E01265C3F4F8EA155
:102CE0009FA1A8A5B9A580839183A283B383808B7C
:102CF000918BA28BB38B3496E217F30781F7CE0149
:102D00000E94CE13C05BDF4F80E090E0A0E0B0E017
:102D100088839983AA83BB83C055D040FE01E453C6
:102D2000FF4F10829E012C5A3F4FCA5BDF4FAF010D
:102D300088819981AA81BB81F90181939193A193A3
:102D4000B1939F01E417F50799F7DF91CF911F9198
:102D50000F910895FC018181861711F480E0089598
:102D6000662341F081E08183808160E00E94AD278D
:102D700081E008951182808161E00E94AD2781E0A9
:102D800008951F93CF93DF93EC01862F142F688350
:102D9000498361E00E946E27112319F0888160E069
:102DA00002C0888161E00E94AD27DF91CF911F9121
:102DB0000895FC018EE592E0918380830895FC01E3
:102DC0008EE592E09183808308950895FC018EE55D
:102DD00092E091838083CF010E944F2608958091D5
:102DE000B60288608093B6020895AF92CF92EF92B8
:102DF0000F938130910509F56F5F7F4F79F584EA74
:102E000092E063E10E94A0108AEA92E065E10E94EC
:102E1000A01080EB92E064E10E94A01087EB92E0AA
:102E200063E044E025E006E077E0E72E58E0C52EB9
:102E300039E0A32E0E94240C11C0892B79F46F5F16
:102E40007F4F61F480EB92E00E946E108AEA92E07C
:102E50000E946E1084EA92E00E946E100F91EF9033
:102E6000CF90AF90089580E090E06FEF7FEF0E94E9
:102E7000F516089581E090E06FEF7FEF0E94F51660
:102E800008950F931F938AEA92E00E946F1088239F
:102E900069F08CE793E06CE771E00E942D26809149
:102EA000C9029091CA0261E00E94BA2080EB92E0D0
:102EB0000E946F10882369F08CE793E06FE871E05F
:102EC0000E942D268091C9029091CA026FEF0E9444
:102ED000BA2084EA92E00E946F10882389F0609102
:102EE000CF026F5F633008F060E06093CF02109212
:102EF000D0028091C9029091CA0270E00E945418D9
:102F00008091C9029091CA020E94A7208091B602C6
:102F1000877F8093B6020091CB021091CC02809102
:102F2000C9029091CA020E944B1CF8016683778304
:102F3000808791870091CB021091CC028091C902C9
:102F40009091CA020E943F1CF801628373838483BC
:102F500095830091CB021091CC028091C90290918F
:102F6000CA020E946F1BF80166877787808B918B5E
:102F70000091CB021091CC028091C9029091CA02BB
:102F80000E94031CBC01C8010E94ED110091CB02FC
:102F90001091CC028091C9029091CA020E94B31B89
:102FA000BC01C8010E94B2118091CB029091CC0269
:102FB0000E9430128091CD029091CE020E94361173
:102FC0001F910F9108950F931F930CE713E0C80111
:102FD00040E855E260E070E00E94CD2282E00E946D
:102FE000492764E670E080E090E00E94AB26C801CB
:102FF00064EA71E00E942D26C8010E947A2480E6CE
:1030000090E00E945226182F092F0E941021109341
:10301000C9020093CA0284E391E00E945226182F4D
:10302000092F6091C9027091CA020E942411109365
:10303000CD020093CE0207EB12E0C80164E144E048
:103040000E94690BC8010E94650BC8010E94610BB8
:10305000C80160E040E00E943D0BC80167EB71E0F1
:103060000E948C25C8010E94330B8AE290E00E94E6
:103070005226182F092F0E9415131093CB0200938C
:10308000CC0268EC70E080E090E04FEE56E10E94E8
:10309000370C0E947F0C1F910F910895FC0186E66A
:1030A00092E0918380830895FC01758B648B089571
:1030B000CF93DF93EC018A819B810E942B0DEA81E3
:1030C000FB81FE9620813181428153810E94B92883
:1030D00088236CF480E090E0A0EAB0E48E8B9F8BB4
:1030E000A88FB98F80E090E0A0EAB0EC0CC080E03F
:1030F00090E0A0E2B1E48E8B9F8BA88FB98F80E027
:1031000090E0A0E2B1EC8A8F9B8FAC8FBD8FDF91F6
:10311000CF9108950F931F938C010E949D269B01D0
:10312000AC01F80182A593A5A4A5B5A5281B390B70
:103130004A0B5B0BB901CA011F910F9108950F93C0
:103140001F938C010E949D269B01AC01F80186A172
:1031500097A1A0A5B1A5281B390B4A0B5B0BB901A0
:10316000CA011F910F9108950F931F938C010E9424
:103170009D269B01AC01F80182A193A1A4A1B5A158
:10318000281B390B4A0B5B0BB901CA011F910F9128
:1031900008954F925F926F927F928F929F92AF921B
:1031A000BF92CF92DF92EF92FF920F931F93CF9334
:1031B000DF938C01DC01D3968C91D397882309F49B
:1031C00033C152968D919C915397029709F42CC16B
:1031D0001496CD91DC911597CE5BDF4FC880D980D6
:1031E000EA80FB80C254D040FE01EA5BFF4F608161
:1031F000718182819381A70196010E94B9281816D6
:103200000CF494C0EE96C701B601288139814A8139
:103210005B810E94082A88230CF488C0F801C4AAA4
:10322000D5AAE6AAF7AAE05CFF4F6081718182818E
:10323000938120E030E040E050E40E9455284B01AB
:103240005C01C701B601A50194010E94082A181665
:103250000CF042C00C5B1F4FD8014D905D906D90FB
:103260007C9004541040C701B601A50194010E944E
:1032700054282FE832EC45EF5CE30E940C2A6B01E6
:103280007C012AE939E949E95EE30E94B92887FD12
:1032900005C020E030E040EC5FE30AC0C701B601A2
:1032A0002AE939E949E95FE30E9455289B01AC010D
:1032B0000C5B1F4FC301B2010E940C2AF80160830E
:1032C00071838283938304541040D8011A968D91A0
:1032D0009C911B970E94E516F80184A895A8A6A8C2
:1032E000B7A8E05CFF4F608171818281938120E00B
:1032F00030E040E85FE30E9454286B017C01C50187
:10330000B401A70196010E94B92888230CF08AC055
:103310000C5B1F4FD8014D905D906D907C900454D4
:103320001040C501B401A701960147C0C8010E9421
:103330009F18615A794D8840904008F475C0C801C3
:103340000E94B418615A7B4B8D40904008F46CC0C9
:10335000D8011496ED91FC911597EA5BFF4FC08060
:10336000D180E280F380F801E05CFF4F60817181E1
:103370008281938120E030E040E85FE30E9454289E
:103380004B015C01C701B601A50194010E94B92857
:1033900088230CF049C0F801C4AAD5AAE6AAF7AA66
:1033A0000C5B1F4FD8014D905D906D907C90045444
:1033B0001040C701B601A50194010E9454282FE8CE
:1033C00032EC45EF5CE30E940C2A6B017C012AE998
:1033D00039E949E95EEB0E94082A18162CF020E032
:1033E00030E040E05FE30AC0C701B6012DEC3CECE1
:1033F0004CE45FE30E9455289B01AC010C5B1F4F1E
:10340000C301B2010E940C2AF80160837183828398
:10341000938304541040D8011A968D919C911B9768
:103420000E94E516F80113AAD801D2968C91D29782
:10343000882309F421C152968D919C91539701974D
:1034400009F41AC11496CD91DC911597CE5BDF4F2C
:10345000C880D980EA80FB80C254D040FE01EA5B7C
:10346000FF4F6081718182819381A70196010E9443
:10347000082A88230CF483C0EE96C701B601288180
:1034800039814A815B810E94B92818160CF477C0F3
:10349000F801C0AED1AEE2AEF3AE64AD75AD86ADAF
:1034A00097AD20E030E040E050E40E9454284B010A
:1034B0005C01C701B601A50194010E94B9288823C7
:1034C0000CF042C0085B1F4FD8014D905D906D908D
:1034D0007C9008541040C501B401A70196010E94D8
:1034E00054282FE832EC45EF5CE30E940C2A6B0174
:1034F0007C012AE939E949E95EE30E94B92887FDA0
:1035000005C020E030E040EC5FE30AC0C701B6012F
:103510002AE939E949E95FE30E9455289B01AC019A
:10352000085B1F4FC301B2010E940C2AF80160839F
:1035300071838283938308541040D8011A968D9129
:103540009C911B970E94E516F80180AC91ACA2AC4F
:10355000B3AC64AD75AD86AD97AD20E030E040E82A
:103560005FE30E9455286B017C01C501B401A701EE
:1035700096010E94082A18160CF43AC07BC0C801B4
:103580000E94B418615279428B41904008F474C093
:10359000C8010E949F18615477478B41904008F4FE
:1035A0006BC0D8011496ED91FC911597EA5BFF4F23
:1035B000C080D180E280F380DC966D917D918D9109
:1035C0009C91DF9720E030E040E85FE30E945528BF
:1035D0004B015C01C701B601A50194010E94082AB4
:1035E00018160CF049C0F801C0AED1AEE2AEF3AE91
:1035F000085B1F4FD8014D905D906D907C900854F2
:103600001040C701B601A50194010E9454282FE87B
:1036100032EC45EF5CE30E940C2A6B017C012AE945
:1036200039E949E95EEB0E94082A18162CF020E0DF
:1036300030E040E05FE30AC0C701B6012DEC3CEC8E
:103640004CE45FE30E9455289B01AC01085B1F4FCF
:10365000C301B2010E940C2AF80160837183828346
:10366000938308541040D8011A968D919C911B9712
:103670000E94E516F80112AADF91CF911F910F91D8
:10368000FF90EF90DF90CF90BF90AF909F908F9082
:103690007F906F905F904F9008950F931F938C01D0
:1036A000FC01848195810E945613005C1F4FF80134
:1036B00060837183828393831F910F9108950F9389
:1036C0001F938C01FC01848195810E945613F8019F
:1036D00064AF75AF86AF97AF1F910F910895FC014E
:1036E000848995890197029728F4828193810E94A9
:1036F0002B0D04C0848195810E94561320E030E098
:1037000040E251E40E94BD28E62F2E2F372F482F8C
:10371000592FB901CA010895CF93DF93EC018A892B
:103720009B898230910549F0833091057CF40197A3
:1037300069F48E819F8161E00CC08E819F8160E081
:103740000E94AA168885998561E008C08E819F81B4
:1037500060E00E94AA168885998560E00E94AA16FA
:10376000DF91CF910895EF92FF920F931F93CF9324
:10377000DF93EC018A899B8982309105C9F08330FF
:1037800091052CF4009771F0019749F40EC0843034
:103790009105A1F08430910574F0059791F02CEC1F
:1037A00031E029C06CEC71E00EC064ED71E00BC03B
:1037B0006CED71E008C064EE71E005C069EE71E087
:1037C00002C061EF71E0DB010D900020E9F78D018F
:1037D00001501040061B170B86E5E82EF12CEC0E6D
:1037E000FD1EC701A8010E942602C00FD11FCA5AA0
:1037F000DF4F18829701C901DF91CF911F910F917F
:10380000FF90EF900895CF93DF93FC018489958911
:103810008130910599F082309105D9F0892B19F00A
:103820002CEC31E028C0EF01C45BDF4FABEFB1E01F
:103830008AE00D9009928150E1F715C0EF01C45B59
:10384000DF4FA6E0B2E08AE00D9009928150E1F7E7
:103850000AC0EF01C45BDF4FA1E1B2E08AE00D9046
:1038600009928150E1F7EA5AFF4F1082E655F04085
:103870009F01245B3F4FC901DF91CF910895FC0167
:10388000848195810E944E1320E030E040E251E4B3
:103890000E94BD280895FC01828193810E94210D20
:1038A00020E030E040E251E40E94BD2808952F92CC
:1038B0003F924F925F926F927F928F929F92AF92C0
:1038C000BF92CF92DF92EF92FF920F931F93CF930D
:1038D000DF93EC018A899B89853091055CF4833004
:1038E000910564F48130910509F4AEC0029709F0A6
:1038F00089C11AC1059709F085C188C10E949D261A
:103900006AA77BA78CA79DA7CE010E94B418615A15
:103910007B4B8D40904018F48AA9882359F4CE013E
:103920000E949F18615C77428940904040F48BA9C7
:10393000882329F08A899B89049709F071C08C81BA
:103940009D810E944E137B018C018C819D810E9480
:10395000561320E030E040E450E40E9455289B01DB
:10396000AC01C801B7010E94082A18160CF58C8911
:103970009D89892BD1F0EA81FB81FE96E080F18060
:1039800002811381FE97CF010E942B0D20E030E0D1
:1039900040E05FE30E9455289B01AC01C801B701DC
:1039A0000E94082A18160CF031C181E090E02CC169
:1039B0008C819D810E944E137B018C018C819D81A5
:1039C0000E94561320E030E040E450E40E94542866
:1039D0009B01AC01C801B7010E94B928882304F5F6
:1039E0008C899D89892BC9F08A819B810E94210D38
:1039F0007B018C018A819B810E942B0D20E030E0AD
:103A000040E05FE30E9454289B01AC01C801B7016C
:103A10000E94B92888230CF0F9C082E090E0F4C03D
:103A2000CE010E94B418615477478B41904008F052
:103A30001AAACE010E949F18615A7B4B8D4090407C
:103A400008F4E4C01BAAE2C081E08AAB0E949D2674
:103A50006AA37BA38CA39DA3C85BDF4F288039801A
:103A60004A805B80C854D040CE010E948A180E94D0
:103A7000562920E030E04AE754E40E94BD2820E0C7
:103A800030E046E954E40E94082A18165CF40F2E30
:103A9000F0E06F2EF0E07F2EF6E98F2EF4E49F2EFB
:103AA000F02D0DC0CE010E948A180E94562920E0F8
:103AB00030E04AE754E40E94BD283B014C018C8170
:103AC0009D810E944E137B018C018C819D810E94FF
:103AD00056135B016C01C201B101A40193010E9464
:103AE0000C2A20E030E040E752E40E94BD289B0110
:103AF000AC01C801B7010E9454287B018C01C601AA
:103B0000B50120E030E040E050E00E9455289B01E4
:103B1000AC01C801B7010E94B92818160CF476C090
:103B2000CE010E945F1B6EC00E949D266EA37FA3E4
:103B300088A799A781E08BABCC5BDF4F28803980C9
:103B40004A805B80C454D040CE010E948A180E94F3
:103B5000562920E030E04AE754E40E94BD2820E0E6
:103B600030E046E154E40E94082A18165CF40F2E57
:103B7000F0E06F2EF0E07F2EF6E18F2EF4E49F2E22
:103B8000F02D0DC0CE010E948A180E94562920E017
:103B900030E04AE754E40E94BD283B014C018C818F
:103BA0009D810E944E137B018C018C819D810E941E
:103BB00056135B016C01C201B101A40193010E9483
:103BC0000C2A20E030E040E752E40E94BD289B012F
:103BD000AC01C801B7010E9455287B018C01C601C8
:103BE000B50120E030E040E050E00E9455289B0104
:103BF000AC01C801B7010E94082A88233CF0CE011D
:103C00000E944D1B83E090E09B8B8A8BDF91CF91CC
:103C10001F910F91FF90EF90DF90CF90BF90AF90EA
:103C20009F908F907F906F905F904F903F902F90DC
:103C300008958F929F92AF92BF92CF92DF92EF92B0
:103C4000FF920F931F93CF93DF93EC018C899D8993
:103C50000197029708F0E5C18A819B810E942B0D94
:103C60000A811B81F801FE962081318142815381B6
:103C70000E9454285B016C0120E030E040E050E0FD
:103C80000E94082A18165CF4C601B50120E030E055
:103C900040EA50E40E94B92887FD0CC062C0C6010A
:103CA000B50120E030E040EA50EC0E94082A1816E6
:103CB0000CF057C00E5B1F4FF801E080F1800281CD
:103CC0001381C801B70123E333E343E35FE30E94B9
:103CD000B928181654F0C801B70120E030E040E0E0
:103CE00050E00E94082A87FF14C0C801B70123E3EF
:103CF00033E343EB5FEB0E94082A882394F1C80169
:103D0000B70120E030E040E050E00E94B9281816EA
:103D100044F1C601B50120E030E040E050E00E94EF
:103D2000082A18165CF4C601B50120E030E040E036
:103D30005FE30E94082A18165CF021C0C601B50195
:103D400020E030E040E05FEB0E94B9288823BCF41B
:103D50006EA57FA588A999A9A60195010E9455285D
:103D60000AC06EA57FA588A999A926E636E646E68B
:103D70005FE30E940C2A6EA77FA788AB99ABC601B0
:103D8000B50120E030E040E050E00E94B9286E89A3
:103D90007F89888D998D20E030E040E050E00E94DE
:103DA00055287B018C0120E030E040EA50E40E947D
:103DB000B92888235CF40F2EF0E0EF2EF0E0FF2E00
:103DC000F0EA0F2FF0E41F2FF02D14C0C801B70147
:103DD00020E030E040E251E40E94082A181654F432
:103DE0000F2EF0E0EF2EF0E0FF2EF0E20F2FF1E4C7
:103DF0001F2FF02DEE8AFF8A088F198F6A8D7B8D19
:103E00008C8D9D8D20E030E040E050E00E945528F0
:103E10007B018C0120E030E040E251EC0E94B928A7
:103E200088235CF40F2EF0E0EF2EF0E0FF2EF0E29E
:103E30000F2FF1EC1F2FF02D14C0C801B70120E0A7
:103E400030E040EA50EC0E94082A181654F40F2E75
:103E5000F0E0EF2EF0E0FF2EF0EA0F2FF0EC1F2F36
:103E6000F02DEA8EFB8E0C8F1D8F8A819B810E9424
:103E70002B0D7B018C018A809B80C601B5012E89A8
:103E80003F89488D598D0E940C2A9B01AC01C801C5
:103E9000B7010E9455287B018C016E8D7F8D88A112
:103EA00099A12EA53FA548A959A90E940C2A9B01BA
:103EB000AC01C801B7010E9455287B018C01F401B7
:103EC000EE5BFF4F6A8D7B8D8C8D9D8D20813181C6
:103ED000428153810E940C2A9B01AC01C801B701A9
:103EE0000E94552820E030E040E252E40E94B928C8
:103EF00088232CF4A0E050E040E262E489C0C401D1
:103F00000E942B0D7B018C018A809B80C601B5012C
:103F10002E893F89488D598D0E940C2A9B01AC0146
:103F2000C801B7010E9455287B018C016E8D7F8DE1
:103F300088A199A12EA53FA548A959A90E940C2A9C
:103F40009B01AC01C801B7010E9455287B018C017F
:103F5000F401EE5BFF4F6A8D7B8D8C8D9D8D2081F2
:103F60003181428153810E940C2A9B01AC01C8011E
:103F7000B7010E94552820E030E046E953E40E9452
:103F8000082A18162CF4A0E050E046E963E440C08B
:103F9000C4010E942B0D7B018C018A809B80C6018D
:103FA000B5012E893F89488D598D0E940C2A9B01AD
:103FB000AC01C801B7010E9455287B018C016E8DB0
:103FC0007F8D88A199A12EA53FA548A959A90E9436
:103FD0000C2A9B01AC01C801B7010E9455287B0146
:103FE0008C01F401EE5BFF4F6A8D7B8D8C8D9D8D76
:103FF00020813181428153810E940C2A9B01AC01B6
:10400000C801B7010E945528A62F572F482F692FA6
:10401000C4012A2F352FE42FF62FA901BF010E94DA
:10402000100DDF91CF911F910F91FF90EF90DF90D6
:10403000CF90BF90AF909F908F900895CF93DF93D4
:10404000EC016E857F858889998968537F4F8F4FF2
:104050009F4F6E877F87888B998B20E137E240E006
:1040600050E00E94A12A611571058105910509F0B2
:1040700043C0CE010E94C918CE010E94191E8C8136
:104080009D810E944E13AB01BC018CE793E022E0BE
:1040900030E00E942A268C819D810E945613AB013C
:1040A000BC018CE793E022E030E00E942A268A815E
:1040B0009B810E94210DAB01BC018CE793E022E0C3
:1040C00030E00E942A26CE010E94B31BBC018CE77F
:1040D00093E00E948C258CE793E06CE20E947224AE
:1040E000CE010E94031CBC018CE793E00E948C254A
:1040F0008CE793E00E947A246E857F858889998970
:1041000028EE33E040E050E00E94A12A61157105DD
:104110008105910531F4CE010E94571CCE010E9409
:104120008C1B6E857F858889998920E63AEE40E070
:1041300050E00E94A12A611571058105910521F4C5
:104140001E861F86188A198ADF91CF9108950F93D2
:104150001F938C01FC01828193810E944E0FF80114
:10416000848195810E948F15C8010E941E201F9195
:104170000F910895BF92CF92DF92EF92FF920F932B
:104180001F93FC01B62E8489958981309105D9F45D
:10419000C280D380C6010E942B0D7B018C016B2D48
:1041A000772767FD7095872F972F0E9458299B01CD
:1041B000AC01C801B7010E945528AB01BC01C60182
:1041C0000E94100D1CC0892BD1F4C480D580C6017B
:1041D0000E9456137B018C016B2D772767FD70952C
:1041E000872F972F0E9458299B01AC01C801B70166
:1041F0000E945528AB01BC01C6010E945E131F91AD
:104200000F91FF90EF90DF90CF90BF900895FC0149
:1042100086E692E091838083CF010E944F26089525
:10422000EF92FF920F931F938C0186E692E0F801C4
:104230009183808382E090E00E945226F82EE92E3E
:1042400062E041E00E94C116F801F682E78282E056
:1042500090E00E945226F82EE92E6AE041E00E948A
:10426000C116F801F086E1868EEC90E00E9452269D
:10427000F82EE92E6CE172E041E00E94DE0FF801B9
:10428000F282E3828DEC90E00E945226F82EE92E15
:104290000E942116F801F482E58282E090E00E94FB
:1042A0005226F82EE92E0E94D916F801F286E386EE
:1042B000158A148A84E090E0938B828BC8010E9457
:1042C0005818C8010E94191EF80112A213A214A2C4
:1042D00015A216A217A210A611A612A613A614A61E
:1042E00015A612AA13AA80E090E0A9E7B3E480AF74
:1042F00091AFA2AFB3AF80E090E0ABE7B3E484ABA3
:1043000095ABA6ABB7AB0C5B1F4F8DEC9CECACE454
:10431000BEE3F80181939193A193B1938F0180E063
:1043200090E0A0EAB0E480839183A283B383085431
:104330001040F80116861786108A118A1F910F9176
:10434000FF90EF9008950F931F9301ED12E0C801C5
:104350006CE00E943A0A8FED92E0B8010E94670279
:104360001F910F910895EF92FF920F931F93CF9398
:10437000DF93EC010E949D267B018C018091F2026B
:104380009091F3029701281B390BC901845893407F
:1043900044F08C8D9D8D0E947B04F092F302E0929C
:1043A000F202DF91CF911F910F91FF90EF9008954E
:1043B0000F931F938C010E94B321F801848D958D7A
:1043C000608D0E94980520E030E040E251E40E94B8
:1043D0000C2A9B01AC01F801208331834283538373
:1043E0001F910F910895BF92CF92DF92EF92FF92AB
:1043F0000F931F938C016B01B42E8EE090E00E940E
:104400005226F82EE92E6CE00E943A0AF801F28E4C
:10441000E38E83E190E00E945226F82EE92EF80107
:10442000628D738D0E946702F801F48EE58E8F2DE8
:104430009E2D0E940206F801848D958D6AE00E94EF
:10444000BF05F80180E090E0A0E0B0E08193919397
:10445000A193B193CF01B60144E150E00E9426023E
:10446000F801B08E89E0818FB801625E7F4F848D44
:10447000958D4B2D0E946A05F801848D958D618D77
:104480000E94BF051F910F91FF90EF90DF90CF909A
:10449000BF90089508951F920F920FB60F921124A6
:1044A0002F933F934F938F939F93EF93FF9340915D
:1044B000C60020913403309135032F5F3F4F2F7397
:1044C000307080913603909137032817390759F0DF
:1044D000E0913403F0913503EC50FD4F408330936D
:1044E000350320933403FF91EF919F918F914F916A
:1044F0003F912F910F900FBE0F901F901895E09154
:104500008803F0918903E05CFF4F819191912081B4
:104510003181821B930B8F739070892B11F00E9455
:104520004A2208951F920F920FB60F9211242F93D3
:104530003F938F939F93EF93FF9320917803309154
:10454000790380917A0390917B032817390731F41E
:104550008091C1008F7D8093C10014C0E0917A03E7
:10456000F0917B03E85CFC4F208180917A0390916D
:104570007B0301968F73907090937B0380937A03F3
:104580002093C600FF91EF919F918F913F912F91C2
:104590000F900FBE0F901F901895AF92BF92DF92B1
:1045A000EF92FF920F931F93CF93DF93EC017A0169
:1045B0008B01DD24403081EE580780E0680780E001
:1045C000780711F0DD24D39491E0A92EB12CEC8969
:1045D000FD89DD2069F0C5010E8C02C0880F991F8E
:1045E0000A94E2F7808360E079E08DE390E005C013
:1045F000108260E874E88EE190E0A80197010E94C3
:10460000A12A21503040404050405695479537955B
:10461000279580E12030380720F0DD2011F0DD24DF
:10462000D6CFE889F9893083EA89FB892083EE892E
:10463000FF89408121E030E0C9010A8C02C0880F67
:10464000991F0A94E2F7482B4083EE89FF89408145
:10465000C9010B8C02C0880F991F0A94E2F7482BFE
:104660004083EE89FF894081C9010C8C02C0880F0C
:10467000991F0A94E2F7482B4083EE89FF898081D5
:104680000D8C02C0220F331F0A94E2F720952823D5
:104690002083DF91CF911F910F91FF90EF90DF90DA
:1046A000BF90AF900895DC011C96ED91FC911D9791
:1046B000E05CFF4F2191319180819181281B390B62
:1046C0002F733070C9010895DC011C96ED91FC91A7
:1046D0001D97E05CFF4F20813181E054F040DF0105
:1046E000AE5BBF4F8D919C9111972817390719F434
:1046F0002FEF3FEF07C08D919C91E80FF91F80814C
:10470000282F30E0C9010895DC011C96ED91FC9141
:104710001D97E05CFF4F20813181E054F040DF01C4
:10472000AE5BBF4F8D919C9111972817390719F4F3
:104730002FEF3FEF10C08D919C911197E80FF91F5B
:1047400020818D919C91119701968F739070119695
:104750009C938E9330E0C9010895FC01868597856E
:10476000DC01A05CBF4FFC01EE5BFF4F2D913C9143
:1047700011978081918128173907C1F70895CF9348
:10478000DF93EC01EE85FF85E05CFF4F20813181F6
:10479000E054F0402F5F3F4F2F733070DF01AE5B6E
:1047A000BF4F8D919C91119728173907D1F3E05C89
:1047B000FF4F80819181E054F040E80FF91F608342
:1047C000EE85FF85E05CFF4F31832083EE89FF8912
:1047D000208181E090E00D8C02C0880F991F0A941F
:1047E000E2F7282B208381E090E0DF91CF910895BC
:1047F00010927F0310927E0388EE93E0A0E0B0E079
:104800008093800390938103A0938203B0938303EA
:104810008EE692E090937D0380937C0384EF92E098
:10482000909389038093880388E393E090938B03AC
:1048300080938A0385EC90E090938D0380938C03A2
:1048400084EC90E090938F0380938E0380EC90E053
:10485000909391038093900381EC90E09093930365
:104860008093920386EC90E0909395038093940359
:1048700084E08093960383E08093970387E080939E
:10488000980385E08093990381E080939A030895CB
:10489000CF92DF92EF92FF920F931F93CF93DF930C
:1048A0007C016B018A01C0E0D0E00FC0D6016D91A0
:1048B0006D01D701ED91FC910190F081E02DC701D0
:1048C0000995C80FD91F015010400115110571F746
:1048D000CE01DF91CF911F910F91FF90EF90DF906C
:1048E000CF900895DC01ED91FC910190F081E02DD5
:1048F00009950895EF92FF920F931F938C01DC01AD
:10490000ED91FC910190F081E02D6DE009957C0125
:10491000D801ED91FC910190F081E02DC8016AE091
:1049200009959C012E0D3F1DC9011F910F91FF900C
:10493000EF900895EF92FF920F931F937C01DC019B
:10494000ED91FC910190F081E02D09958C01C7015A
:104950000E947A24080F191FC8011F910F91FF9020
:10496000EF900895CF93DF93DB010D900020E9F7DE
:104970001197A61BB70BEC01E881F9810280F38146
:10498000E02DAD010995DF91CF9108954F925F928F
:104990007F928F929F92AF92BF92CF92DF92EF92CF
:1049A000FF920F931F93DF93CF93CDB7DEB7A197FD
:1049B0000FB6F894DEBF0FBECDBF2C01742ECB0115
:1049C000223008F42AE019A231E2C32ED12CCC0EF9
:1049D000DD1E822E9924AA24BB24672D752FA501E4
:1049E00094010E94A12A79018A01C801B701A50199
:1049F00094010E946F2A472D461B0894C108D108D4
:104A00004A3014F4405D01C0495CF6014083E11472
:104A1000F1040105110521F07E2C5F2DC801DDCFC9
:104A2000C201B6010E94B224A1960FB6F894DEBF6F
:104A30000FBECDBFCF91DF911F910F91FF90EF90EF
:104A4000DF90CF90BF90AF909F908F907F905F90BE
:104A50004F900895DC012115310541F4ED91FC9151
:104A60000190F081E02D642F099508950E94C624DD
:104A70000895CF92DF92EF92FF920F931F93CF93FF
:104A8000DF93EC016A017B012115310541F4E881D6
:104A9000F9810190F081E02D642F09951FC02A3023
:104AA0003105D1F477FF17C0E881F9810190F081D9
:104AB000E02D6DE209958C0144275527BA014C1968
:104AC0005D096E097F09CE012AE00E94C624980183
:104AD000280F391F04C02AE00E94C6249C01C90186
:104AE000DF91CF911F910F91FF90EF90DF90CF90CA
:104AF0000895EF92FF920F931F937B019A01002775
:104B0000F7FC0095102FB801A7010E9439251F91CD
:104B10000F91FF90EF9008950E94B22408957F9224
:104B20008F929F92AF92BF92CF92DF92EF92FF92BD
:104B30000F931F93CF93DF934C017A018B01722E59
:104B4000CB01BA0120E030E040E050E00E94B928FB
:104B500087FD03C0C0E0D0E00EC0D401ED91FC9110
:104B60000190F081E02DC4016DE20995EC0117FB85
:104B7000109517F9109520E030E040E05FE3AA249B
:104B80000BC0CA01B90120E030E040E251E40E94CC
:104B9000BD289B01AC01A394A71498F3C801B701E9
:104BA0000E9455285B016C010E942A297B018C011F
:104BB000C401B801A7012AE030E00E942A25C80FED
:104BC000D91F772039F0C40161E272E00E94B2245B
:104BD000C80FD91FC801B7010E9456299B01AC011B
:104BE000C601B5010E94542824C020E030E040E214
:104BF00051E40E940C2A7B018C010E9425295B0153
:104C00006C01CC24B7FCC094DC2CC401B601A50116
:104C10002AE030E00E943925C80FD91FC601B5012E
:104C20000E9458299B01AC01C801B7010E94542879
:104C30007A947720D1F6CE01DF91CF911F910F9119
:104C4000FF90EF90DF90CF90BF90AF909F908F90AC
:104C50007F9008950E948F250895EF92FF920F9301
:104C60001F937C010E94B2248C01C7010E947A2408
:104C7000080F191FC8011F910F91FF90EF90089521
:104C8000CF93DF930E940E270E94E317CFE7D2E273
:104C90000E9441172097E1F30E947F22F9CF0E94E2
:104CA000B90108950E940F0108951F920F920FB647
:104CB0000F9211242F933F938F939F93AF93BF93A2
:104CC00080919F039091A003A091A103B091A203B2
:104CD0003091A3030196A11DB11D232F2D5F2D3708
:104CE00020F02D570196A11DB11D2093A3038093A1
:104CF0009F039093A003A093A103B093A20380917C
:104D00009B0390919C03A0919D03B0919E030196FB
:104D1000A11DB11D80939B0390939C03A0939D03C1
:104D2000B0939E03BF91AF919F918F913F912F912F
:104D30000F900FBE0F901F9018958FB7F894209189
:104D40009F033091A0034091A1035091A2038FBF14
:104D5000B901CA0108959B01AC017FB7F894809115
:104D60009B0390919C03A0919D03B0919E0366B517
:104D7000A89B05C06F3F19F00196A11DB11D7FBF13
:104D8000BA2FA92F982F8827860F911DA11DB11D1D
:104D900062E0880F991FAA1FBB1F6A95D1F7BC015B
:104DA0002DC0FFB7F89480919B0390919C03A09134
:104DB0009D03B0919E03E6B5A89B05C0EF3F19F097
:104DC0000196A11DB11DFFBFBA2FA92F982F8827CB
:104DD0008E0F911DA11DB11DE2E0880F991FAA1F22
:104DE000BB1FEA95D1F7861B970B885E9340C8F2EC
:104DF000215030404040504068517C4F21153105D2
:104E00004105510571F60895019739F0880F991FF2
:104E1000880F991F02970197F1F70895789484B548
:104E2000826084BD84B5816084BD85B5826085BDA6
:104E300085B5816085BDEEE6F0E08081816080838C
:104E4000E1E8F0E01082808182608083808181606F
:104E50008083E0E8F0E0808181608083E1EBF0E036
:104E6000808184608083E0EBF0E0808181608083DA
:104E7000EAE7F0E0808184608083808182608083C3
:104E80008081816080838081806880831092C100EE
:104E9000089580932D020895982F8E3008F09E502B
:104EA000977080912D028295880F880F807C892BC6
:104EB00080937C0080917A00806480937A00809156
:104EC0007A0086FDFCCF2091780040917900942FE4
:104ED00080E030E0282B392BC9010895CF93DF9370
:104EE000482F50E0CA0186569E4FFC0134914A5724
:104EF0005E4FFA018491882369F190E0880F991F31
:104F0000FC01E859FE4FA591B491FC01EE58FE4F0B
:104F1000C591D491662351F42FB7F8948C91932FB7
:104F2000909589238C93888189230BC0623061F42A
:104F30002FB7F8948C91932F909589238C93888127
:104F4000832B88832FBF06C09FB7F8948C91832B47
:104F50008C939FBFDF91CF910895482F50E0CA01F5
:104F600082559E4FFC012491CA0186569E4FFC013A
:104F700094914A575E4FFA013491332309F440C0AB
:104F8000222351F1233071F0243028F42130A1F094
:104F9000223011F514C02630B1F02730C1F0243092
:104FA000D9F404C0809180008F7703C08091800085
:104FB0008F7D8093800010C084B58F7702C084B548
:104FC0008F7D84BD09C08091B0008F7703C0809130
:104FD000B0008F7D8093B000E32FF0E0EE0FFF1F55
:104FE000EE58FE4FA591B4912FB7F894662321F4A3
:104FF0008C919095892302C08C91892B8C932FBF23
:105000000895682F70E0CB0182559E4FFC012491DA
:10501000CB0186569E4FFC0144916A577E4FFB019F
:105020009491992319F420E030E03CC0222351F1FF
:10503000233071F0243028F42130A1F0223011F512
:1050400014C02630B1F02730C1F02430D9F404C0A8
:10505000809180008F7703C0809180008F7D809346
:10506000800010C084B58F7702C084B58F7D84BD69
:1050700009C08091B0008F7703C08091B0008F7D10
:105080008093B000892F90E0880F991F84589E4F1D
:10509000FC01A591B4918C9120E030E0842311F0C3
:1050A00021E030E0C90108955058BB27AA270ED04F
:1050B00075C166D130F06BD120F031F49F3F11F40F
:1050C0001EF45BC10EF4E095E7FB51C1E92F77D1E7
:1050D00080F3BA17620773078407950718F071F415
:1050E0009EF58FC10EF4E0950B2EBA2FA02D0B016B
:1050F000B90190010C01CA01A0011124FF27591B1D
:1051000099F0593F50F4503E68F11A16F040A22F22
:10511000232F342F4427585FF3CF46953795279593
:10512000A795F0405395C9F77EF41F16BA0B620B92
:10513000730B840BBAF09150A1F0FF0FBB1F661FD9
:10514000771F881FC2F70EC0BA0F621F731F841F1C
:1051500048F4879577956795B795F7959E3F08F042
:10516000B3CF9395880F08F09927EE0F9795879501
:105170000895D9D008F481E008950CD00FC107D16B
:1051800040F0FED030F021F45F3F19F0F0C0511133
:1051900039C1F3C014D198F39923C9F35523B1F35E
:1051A000951B550BBB27AA2762177307840738F096
:1051B0009F5F5F4F220F331F441FAA1FA9F333D0F5
:1051C0000E2E3AF0E0E830D091505040E695001CA9
:1051D000CAF729D0FE2F27D0660F771F881FBB1F65
:1051E000261737074807AB07B0E809F0BB0B802D3F
:1051F000BF01FF2793585F4F2AF09E3F510568F08B
:10520000B6C000C15F3FECF3983EDCF3869577951E
:105210006795B795F7959F5FC9F7880F911D96958C
:10522000879597F90895E1E0660F771F881FBB1FE8
:10523000621773078407BA0720F0621B730B840B95
:10524000BA0BEE1F88F7E095089504D06894B11169
:10525000D9C00895BCD088F09F5790F0B92F9927F6
:10526000B751A0F0D1F0660F771F881F991F1AF071
:10527000BA95C9F712C0B13081F0C3D0B1E008953A
:10528000C0C0672F782F8827B85F39F0B93FCCF3BB
:10529000869577956795B395D9F73EF49095809567
:1052A000709561957F4F8F4F9F4F0895E89409C087
:1052B00097FB3EF490958095709561957F4F8F4F49
:1052C0009F4F9923A9F0F92F96E9BB279395F6955F
:1052D000879577956795B795F111F8CFFAF4BB0FDD
:1052E00011F460FF1BC06F5F7F4F8F4F9F4F16C041
:1052F000882311F096E911C0772321F09EE8872FCB
:10530000762F05C0662371F096E8862F70E060E086
:105310002AF09A95660F771F881FDAF7880F9695FF
:10532000879597F90895990F0008550FAA0BE0E8A3
:10533000FEEF16161706E807F907C0F01216130657
:10534000E407F50798F0621B730B840B950B39F497
:105350000A2661F0232B242B252B21F408950A26FD
:1053600009F4A140A6958FEF811D811D089597F93D
:105370009F6780E870E060E008959FEF80EC0895FB
:1053800000240A9416161706180609060895002424
:105390000A9412161306140605060895092E03949E
:1053A000000C11F4882352F0BB0F40F4BF2B11F412
:1053B00060FF04C06F5F7F4F8F4F9F4F089557FD71
:1053C0009058440F551F59F05F3F71F04795880F73
:1053D00097FB991F61F09F3F79F08795089512160A
:1053E00013061406551FF2CF4695F1DF08C01616B6
:1053F00017061806991FF1CF869571056105089467
:105400000895E894BB2766277727CB0197F908957D
:105410008ADF08F48FEF08950BD0C0CFB1DF28F0FA
:10542000B6DF18F0952309F0A2CFA7CF1124EACF59
:10543000C6DFA0F3959FD1F3950F50E0551F629FF3
:10544000F001729FBB27F00DB11D639FAA27F00DDD
:10545000B11DAA1F649F6627B00DA11D661F829F04
:105460002227B00DA11D621F739FB00DA11D621FE9
:10547000839FA00D611D221F749F3327A00D611D06
:10548000231F849F600D211D822F762F6A2F1124E8
:105490009F5750408AF0E1F088234AF0EE0FFF1F3B
:1054A000BB1F661F771F881F91505040A9F79E3F72
:1054B000510570F05CCFA6CF5F3FECF3983EDCF374
:1054C000869577956795B795F795E7959F5FC1F7AF
:1054D000FE2B880F911D9695879597F90895629FE9
:1054E000D001739FF001829FE00DF11D649FE00DDC
:1054F000F11D929FF00D839FF00D749FF00D659F3D
:10550000F00D9927729FB00DE11DF91F639FB00D3B
:10551000E11DF91FBD01CF011124089597FB092E4C
:1055200007260AD077FD04D02ED006D000201AF42A
:10553000709561957F4F0895F6F7909581959F4FEF
:105540000895A1E21A2EAA1BBB1BFD010DC0AA1FC4
:10555000BB1FEE1FFF1FA217B307E407F50720F0DC
:10556000A21BB30BE40BF50B661F771F881F991F57
:105570001A9469F760957095809590959B01AC01A0
:10558000BD01CF010895AA1BBB1B51E107C0AA1F93
:10559000BB1FA617B70710F0A61BB70B881F991FD4
:1055A0005A95A9F780959095BC01CD010895EE0F0D
:1055B000FF1F0590F491E02D099411E0C8ECD1E0B3
:1055C00004C0FE010E94D92A2296CA3CD107C9F71D
:0455D000F894FFCF7D
:1055D4002000203D20004265657200426164204342
:1055E4006F6D6D616E6400476F6F6420436F6D6D06
:1055F400616E6421003C2D3E00506172736564311C
:105604000050617273656432005061727365643373
:10561400004372656174656400526563656976650B
:10562400643A205B0061667465720054617267209D
:105634000041746D6F20004265657220003A0020BD
:1056440000203D2000467269646765005550204281
:105654007574746F6E2050726573736564200044B2
:105664004F574E20427574746F6E20507265737379
:1056740065642000424545522054455354205052FD
:105684004F4752414D20004448542D445320544523
:1056940053542050524F4752414D2000554E4B4ECB
:1056A4004F574E00434F4F4C494E470048454154D5
:1056B400494E470049444C450053544152545550B7
:1056C40000444F4F525F4F50454E00465244475F8F
:1056D400434F4E535400424545525F434F4E53543B
:1056E40000424545525F50524F464C004265657238
:1056F400002E002000A80300002C010000011F1C44
:105704001F1E1F1E1F1F1E1F1E1F00000000190B3F
:105714004824000000000A0DD50F00000000AC1161
:105724000C13000000004813181600000000DF16D8
:10573400E616000000004E18072100000000BF23F9
:0A5744004824532384236423AD237B
:00000001FF
