:100000000C9403010C942B010C942B010C942B01E8
:100010000C942B010C942B010C942B010C942B01B0
:100020000C942B010C94430E0C942B010C942B017B
:100030000C942B010C942B010C942B010C942B0190
:100040000C9493270C942B010C9476230C94BD23D1
:100050000C942B010C942B010C942B010C942B0170
:100060000C942B010C942B01005EBCE2613FDD83FC
:10007000C29C7E20A3FD1F419DC3217FFCA2401E88
:100080005F01E3BD3E6082DC237D9FC1421CFEA078
:10009000E1BF5D0380DE3C62BEE0025CDF81633D68
:1000A0007C22C09E1D43A1FF4618FAA427799BC558
:1000B00084DA3866E5BB5907DB856739BAE4065848
:1000C0001947A5FB7826C49A653BD987045AB8E638
:1000D000A7F91B45C6987A24F8A6441A99C7257B28
:1000E0003A6486D85B05E7B98CD2306EEDB3510F18
:1000F0004E10F2AC2F7193CD114FADF3702ECC9208
:10010000D38D6F31B2EC0E50AFF1134DCE90722CF7
:100110006D33D18F0C52B0EE326C8ED0530DEFB1E7
:10012000F0AE4C1291CF2D73CA947628ABF51749D7
:100130000856B4EA6937D58B5709EBB536688AD4C7
:1001400095CB2977F4AA4816E9B7550B88D6346AB7
:100150002B7597C94A14F6A8742AC896154BA9F7A7
:10016000B6E80A54D7896B35000000002400270048
:100170002A0000000000250028002B0000000000DD
:1001800023002600290004040404040404040202D9
:100190000202020203030303030301020408102006
:1001A0004080010204081020010204081020000011
:1001B0000007000201000003040600000000000028
:1001C0000000494E46494E4954594E414ECDCCCC83
:1001D0003D0AD7233C17B7D13877CC2B329595E61B
:1001E000241FB14F0A000020410000C84200401CFB
:1001F0004620BCBE4CCA1B0E5AAEC59D7400731877
:10020000CE2223256C1811241FBECFEFD8E0DEBF0D
:10021000CDBF12E0A0E0B1E0E4EDF8E502C005904A
:100220000D92A434B107D9F713E0A4E4B2E001C001
:100230001D92A037B107E1F711E0C4E0D2E004C09D
:100240002297FE010E94172CCE3FD107C9F70E94CA
:100250007E270C945D2C0C940000CF93DF93BC019F
:100260008230910510F462E070E0A0916C03B091CF
:100270006D03ED01E0E0F0E040E050E021C0888156
:1002800099818617970769F48A819B81309719F0C5
:100290009383828304C090936D0380936C03FE016B
:1002A00034C06817790738F44115510519F08417DF
:1002B000950708F4AC01FE018A819B819C01E9014C
:1002C0002097E9F641155105A9F1CA01861B970B44
:1002D000049708F4BA01E0E0F0E02AC08D919C9107
:1002E000119784179507F9F46417750781F412962E
:1002F0008D919C911397309719F09383828304C05A
:1003000090936D0380936C03FD0132964CC0CA013B
:10031000861B970BFD01E80FF91F619371930297FC
:100320008D939C9340C0FD01828193819C01D901F2
:100330001097A1F680916A0390916B03892B41F489
:100340008091EF019091F00190936B0380936A0389
:100350004091F1015091F2014115510541F44DB721
:100360005EB78091ED019091EE01481B590B2091F1
:100370006A0330916B03CA01821B930B86179707A0
:1003800080F0AB014E5F5F4F8417950750F0420F2E
:10039000531F50936B0340936A03F9016193719368
:1003A00002C0E0E0F0E0CF01DF91CF910895CF935C
:1003B000DF93009709F450C0EC0122971B821A8248
:1003C000A0916C03B0916D03109709F140E050E0EB
:1003D000AC17BD0708F1BB83AA83FE0121913191BF
:1003E000E20FF31FAE17BF0779F48D919C9111971F
:1003F000280F391F2E5F3F4F3983288312968D9126
:100400009C9113979B838A834115510571F4D09376
:100410006D03C0936C0320C012968D919C9113972D
:10042000AD01009711F0DC01D3CFFA01D383C28371
:1004300021913191E20FF31FCE17DF0769F4888114
:100440009981280F391F2E5F3F4FFA013183208396
:100450008A819B8193838283DF91CF910895662760
:1004600077270C945202FB01DC018D9101908019D9
:100470000110D9F3990B0895FB01DC0101900D9255
:100480000020E1F70895FB01DC014150504048F0A5
:1004900001900D920020C9F701C01D9241505040BB
:1004A000E0F70895A0E0B0E0E8E5F2E00C942C2C31
:1004B000EC015B016115710519F0FB0191838083EB
:1004C000F9908F2D90E00E941B2C892BC9F7FDE23B
:1004D000FF1621F4F990EE24E39405C02BE2F21606
:1004E00009F4F990EE248E0101501040C80162EC2D
:1004F00071E043E050E00E94B203892B01F58E01C8
:100500000E5F1F4FC80165EC71E045E050E00E94AE
:10051000B203892B19F48E01095F1F4FA114B10496
:1005200019F0F50111830083E0FC04C070E090E055
:1005300080E814C070E090E080E86FEF08C1C80167
:100540006AEC71E043E050E00E94B203892B69F449
:10055000A114B10429F470E090E080EC6FE7F7C0DB
:100560002296F501D183C083F6CF8824992440E0F8
:1005700050E060E070E0EF2DE053EA30A0F5F2E0EB
:10058000EF2A8E2D90E09C0128703070E2FE06C0AC
:10059000232B79F50894811C911C2BC0232B19F077
:1005A000089481089108DB01CA0112E0880F991FA5
:1005B000AA1FBB1F1A95D1F7480F591F6A1F7B1F2F
:1005C000440F551F661F771F4E0F511D611D711D72
:1005D000483929E9520729E9620729E1720748F0F9
:1005E00084E0E82A06C0EE3F31F4E3FC39C098E02D
:1005F000E92AF990C0CFE53311F0E53189F5299169
:100600002D3219F4E0E1EE2A05C02B3219F081E019
:1006100090E003C0299182E090E0E22FE053EA30BD
:1006200018F0C81BD90B1CC020E030E0FCE02038DB
:100630003F075CF4C901880F991F880F991F280F85
:10064000391F220F331F2E0F311DE991E053EA307D
:1006500068F3E4FE03C0309521953F4F820E931E50
:10066000CE2CDD24E1FE07C0A114B10421F02197B6
:10067000F501D183C083CB01BA010E94942A7B018A
:100680008C01F3E0CF22DD2423E0C216D10421F453
:1006900017FB109517F9109557016801C801B701AC
:1006A00020E030E040E050E00E94F729882309F480
:1006B0004AC097FE0DC021EEE22E21E0F22E90946A
:1006C000819491089394C0E2D0E000E010E012C061
:1006D00099EFE92E91E0F92EF6CFF70125913591AA
:1006E00045915491C601B5010E944A2B5B016C01F2
:1006F0008C1A9D0A8C169D0684F7D595C7950F5FB9
:100700001F4F0630110529F08CEF9FEFE80EF91E00
:10071000F1CFC501D6017C018D018C2D880F8D2D67
:10072000881F8F3F51F0C601B50120E030E040E066
:1007300050E00E94F729882331F482E290E0909300
:100740006F0380936E037E2D9F2D802F612F272FA7
:10075000392F482F562FB901CA01CDB7DEB7ECE0CB
:100760000C94482CFB01DC014150504088F08D91E5
:1007700081341CF08B350CF4805E659161341CF083
:100780006B350CF4605E861B611171F3990B089553
:10079000881BFCCFFC0180E994E0928B818B7683EF
:1007A00065831482108289E0818381E08283838360
:1007B00008956F927F928F929F92AF92BF92CF9245
:1007C000DF92EF92FF920F931F93CF93DF93FB0182
:1007D000EA01998180E0288130E0282B392BE081E3
:1007E000E23231F0E83221F0E03109F084C04BC050
:1007F0004C814F3329F1403420F44F3109F07BC054
:100800002FC04F3579F04F3709F075C0B9018827EF
:1008100077FD8095982F0E94962A20E030E040E8EE
:100820005DE32EC035952795B901882777FD809522
:10083000982F0E94962A20E030E040E05EE320C03E
:100840003595279535952795B901882777FD8095AA
:10085000982F0E94962A20E030E040E85EE310C026
:1008600093E0359527959A95E1F7B901882777FDAB
:100870008095982F0E94962A20E030E040E05FE3C8
:100880000E944A2B32C0EF8035952795B901882701
:1008900077FD8095982F0E94962A20E030E040E86E
:1008A0005EE30E9492293B014C016E2D70E02E8187
:1008B000621B7109882777FD8095982F0E94962AE0
:1008C0005B016C01FF2400E010E0C801B7010E9449
:1008D000942A9B01AC01C601B5010E94FB299B0132
:1008E000AC01C401B3010E9493299B01AC01832F89
:1008F000942F752F00C0262F382F492F572FB9015D
:10090000CA01DF91CF911F910F91FF90EF90DF907F
:10091000CF90BF90AF909F908F907F906F900895F1
:100920000895EF92FF920F931F938C017B01FC01BE
:10093000858196810E94BC0AF80185819681B70164
:100940000E949B0AF8018581968164EB40E00E9439
:10095000560AF801858196810E94D109F82EF80186
:10096000858196810E94BC0A80E0FF2009F481E025
:100970001F910F91FF90EF900895EF92FF920F93C8
:100980001F93CF93DF93EC018B017A018D819E81C0
:100990000E94BC0A8D819E81B8010E949B0A8D81B4
:1009A0009E816EE440E00E94560A8D819E81F7018F
:1009B000628140E00E94560A8D819E81F701638129
:1009C00040E00E94560AF8018081803139F08D8123
:1009D0009E81F701648140E00E94560A8D819E81CC
:1009E0000E94BC0A8D819E8168E448810E94560A5B
:1009F0008881882331F06AE070E080E090E00E9416
:100A0000E9278D819E810E94BC0ADF91CF911F91C1
:100A10000F91FF90EF900895CF92DF92EF92FF92A7
:100A20000F931F938C016B017A01FC0185819681E4
:100A30000E94BC0AF80185819681B6010E949B0A3A
:100A4000F801858196816EEB40E00E94560AF8011C
:100A5000858196810E94050AF7018083F8018581CE
:100A600096810E94050AF7018183F80185819681AC
:100A70000E94050AF7018283F801858196810E9410
:100A8000050AF7018383F801858196810E94050A92
:100A9000F7018483F801858196810E94050AF70198
:100AA0008583F801858196810E94050AF701868376
:100AB000F801858196810E94050AF7018783F80174
:100AC000858196810E94050AF7018087F80185815A
:100AD00096810E94BC0A1F910F91FF90EF90DF90CA
:100AE000CF900895DF93CF93CDB7DEB729970FB698
:100AF000F894DEBF0FBECDBFAE014F5F5F4F0E94C7
:100B00000C058981811181E029960FB6F894DEBF2A
:100B10000FBECDBFCF91DF910895CF92DF92EF92BC
:100B2000FF920F931F93CF93DF93EC016B01452B43
:100B3000E1F08B818823C9F088818823B1F40E9479
:100B4000DB277B018C01CE0160E070E00E94720522
:100B5000882359F40E94DB276E197F09800B910BC3
:100B60006E5E72408040904070F3F60160816930A3
:100B700039F06930A0F06A3041F06B3081F40AC07E
:100B80006EE570E080E090E00EC06CEB70E080E01D
:100B900090E009C067E771E080E090E004C06EEE8D
:100BA00072E080E090E00E94E927DF91CF911F91F1
:100BB0000F91FF90EF90DF90CF900895CF93DF9348
:100BC000EC018D819E810E94BC0A8D819E810E94D4
:100BD000960A8D819E8164E448810E94560A8A812A
:100BE000882339F0CE012196BE0140E050E00E94FA
:100BF0008D05DF91CF9108950F931F938A010E9475
:100C00000C05C80168E00E94C00920E0F801908549
:100C1000891709F421E0822F1F910F910895CF9237
:100C2000DF92EF92FF920F931F93DF93CF93CDB795
:100C3000DEB729970FB6F894DEBF0FBECDBF8C018B
:100C40007B016E010894C11CD11CA6010E94FC0509
:100C5000882329F460E070E08EEF92EC05C0C801B3
:100C6000B701A6010E94D90329960FB6F894DEBFFA
:100C70000FBECDBFCF91DF911F910F91FF90EF90ED
:100C8000DF90CF900895DF93CF93CDB7DEB729974C
:100C90000FB6F894DEBF0FBECDBF9C01FB01808173
:100CA0008031D9F0C901AE014F5F5F4F0E94FC0552
:100CB0008823A9F08D818F3371F0803418F48F313F
:100CC00071F40BC08F3519F08F3749F402C08BE0F7
:100CD00007C08CE005C08AE003C089E001C080E065
:100CE00029960FB6F894DEBF0FBECDBFCF91DF912E
:100CF0000895CF92DF92EF92FF921F93DF93CF93ED
:100D0000CDB7DEB729970FB6F894DEBF0FBECDBFC3
:100D10006C017B01142FAE014F5F5F4F0E94FC05F9
:100D20008823E1F0F70180818031B9F01A3051F069
:100D30001A3050F01B3021F01C3031F48FE705C021
:100D40008FE503C08FE301C08FE18D83C601B7013A
:100D5000AE014F5F5F4F0E94BD0481E029960FB640
:100D6000F894DEBF0FBECDBFCF91DF911F91FF90F2
:100D7000EF90DF90CF9008950F931F938B01CB01DD
:100D800067E00E94C00920E0F8019781891709F403
:100D900021E0822F1F910F910895EF92FF920F9300
:100DA0001F93CF93DF93EC017B01042F8D819E81F4
:100DB0000E94B30910E007C0CE01B7010E94BC0633
:100DC0008823A9F00AC08D819E81B7010E94070B7C
:100DD000882329F0101759F4EFCF81E001C080E09B
:100DE000DF91CF911F910F91FF90EF9008951F5FBA
:100DF0000117A8F3E8CFEF92FF920F931F93DF93B1
:100E0000CF93CDB7DEB728970FB6F894DEBF0FBEED
:100E1000CDBF7C01462F8E010F5F1F4FB8010E948E
:100E2000CD06C701B8010E940F0628960FB6F894A8
:100E3000DEBF0FBECDBFCF91DF911F910F91FF900D
:100E4000EF900895CF92DF92EF92FF920F931F934E
:100E5000DF93CF93CDB7DEB728970FB6F894DEBFF8
:100E60000FBECDBF7C01693010F469E003C06D3066
:100E700008F06CE0F701618300E010E06E01089477
:100E8000C11CD11C0DC0C701B601402F0E94CD0668
:100E9000C701B601F70141810E9479060F5F1F4F1C
:100EA000F701848190E0081719076CF328960FB6B4
:100EB000F894DEBF0FBECDBFCF91DF911F910F9190
:100EC000FF90EF90DF90CF900895AF92BF92CF92B6
:100ED000DF92EF92FF920F931F93DF93CF93CDB7E3
:100EE000DEB761970FB6F894DEBF0FBECDBF7C01B1
:100EF000FC01858196810E94B309F70114826E017D
:100F00000894C11CD11C79E0A72EB12CAC0EBD1EDB
:100F100001E02BC0C701B6010E94BC06882329F15D
:100F2000F7018081882341F4C701B6010E94910432
:100F3000882311F0F7010083C701B601A5010E94C3
:100F40000C05F7011181C701B6010E944306811704
:100F500018F4F701818104C0C701B6010E9443065D
:100F6000F701818384818F5F8483F7018581968176
:100F7000B6010E94070B882369F661960FB6F894B4
:100F8000DEBF0FBECDBFCF91DF911F910F91FF90BC
:100F9000EF90DF90CF90BF90AF9008958F929F9287
:100FA000AF92BF92CF92DF92EF92FF920F931F9377
:100FB000CF93DF937B018C01EA012CE330E040E02A
:100FC00050E00E94DF2B6883C801B7012CE330E0BA
:100FD00040E050E00E94DF2B122F032FF42EE52E6D
:100FE000622F732F842F952F2CE330E040E050E0E8
:100FF0000E94DF2B6983612F702F8F2D9E2D2CE394
:1010000030E040E050E00E94DF2B122F032FF42E3F
:10101000E52E622F732F842F952F28E130E040E0DA
:1010200050E00E94DF2B6A83612F702F8F2D9E2D41
:1010300028E130E040E050E00E94DF2B79018A0196
:10104000C801B7016C5F7F4F8F4F9F4F27E030E0A3
:1010500040E050E00E94DF2B6F5F6B8320E0AA240A
:10106000BB24650101C02F5F822E9924F401EE5448
:10107000F84FCF0183709070892B99F4CF0164E60B
:1010800070E00E94CC2B892B39F4CF0160E971E02C
:101090000E94CC2B892B29F48EE691E0A0E0B0E0F1
:1010A00004C08DE691E0A0E0B0E0A80EB91ECA1E13
:1010B000DB1EC501A0E0B0E0E816F9060A071B0731
:1010C00090F62E83F401EE54F84F83E0882E912C95
:1010D0008E229F228114910499F4CF0164E670E07E
:1010E0000E94CC2B892B39F4CF0160E971E00E947A
:1010F000CC2B892B29F48EE691E0A0E0B0E004C06F
:101100008DE691E0A0E0B0E0A81AB90ACA0ADB0AAD
:10111000980187010A191B092C093D09CF0164E6D2
:1011200070E00E94CC2B7C01CF0160E971E00E944D
:10113000CC2BAC01E8EFF1E060E0613051F48114B8
:10114000910449F4E114F10441F44115510529F0E9
:1011500002C0808103C08CE101C08DE190E0A0E07D
:10116000B0E0081719072A073B0740F0081B190BC6
:101170002A0B3B0B6F5F31966C30F9F66F5F6D8316
:10118000802F8F5F8C83DF91CF911F910F91FF9004
:10119000EF90DF90CF90BF90AF909F908F90089589
:1011A000EF92FF920F931F937B018C0180915B0262
:1011B00090915C02A0915D02B0915E02E816F90682
:1011C0000A071B0771F0C801B70140E552E00E9411
:1011D000CE07E0925B02F0925C0200935D021093F6
:1011E0005E021F910F91FF90EF90089580914E0243
:1011F00090914F0208956093460270934702809346
:101200004802909349022091F3013091F4014091FA
:10121000F5015091F601260F371F481F591F2093E3
:101220004A0230934B0240934C0250934D0282E0AD
:1012300090E090934F0280934E020E94DB276093D0
:101240005702709358028093590290935A0208955E
:10125000EF92FF920F931F931CC02F5F3F4F4F4F92
:101260005F4F2093460230934702409348025093C9
:10127000490288EE93E0A0E0B0E0E80EF91E0A1FF4
:101280001B1FE0925702F0925802009359021093EC
:101290005A020E94DB27E0905702F090580200911A
:1012A000590210915A026E197F09800B910B2091FF
:1012B0004602309147024091480250914902685ECF
:1012C00073408040904048F680914A0290914B02D2
:1012D000A0914C02B0914D02281739074A075B07CD
:1012E000E8F0E0914402F09145023097B9F0099599
:1012F000611571058105910519F00E94FB080EC06A
:1013000020E030E080914E0290914F02892B11F045
:1013100021E030E030934F0220934E02609146026C
:101320007091470280914802909149021F910F915C
:10133000FF90EF9008950E9428090E94D0088091A4
:10134000500290E008950E9428090E94D0088091E0
:10135000510290E008950E9428090E94D0088091CF
:10136000520290E00895FC0113861586148687E0EA
:1013700090E012863197009711F00197FACF089507
:10138000DC0180E00BC0E82FF0E08D9190E0E827D1
:10139000F927E859FF4FE49161508E2F662399F7A2
:1013A0000895DF92EF92FF920F931F93FC01E0806C
:1013B00001811281F894F80181818E2981838281D3
:1013C000DE2CD0948D21828383E090E00E9442281D
:1013D000F80181818D2181838AE090E00E9442287A
:1013E000F8010081789485E390E00E94422880E033
:1013F00010E0FF240E211F21012B09F081E01F9135
:101400000F91FF90EF90DF900895EF92FF920F936E
:101410001F93CF93DF937C0101E010E0C0E0D0E0A8
:10142000C7010E94D1098111102B000F2196C830ED
:10143000D105B1F7812FDF91CF911F910F91FF90CF
:10144000EF9008951F93CF93DF93FC011081C1812A
:10145000D281912F909560FF12C0F8948A818923E0
:101460008A838981812B89838AE090E00E944228C7
:101470008A81812B8A83789487E390E011C0F89465
:101480008A8189238A838981812B898381E490E001
:101490000E9442288A81812B8A83789485E090E09B
:1014A0000E944228DF91CF911F910895CF92DF9241
:1014B000EF92FF920F931F93CF93DF938C01E42E53
:1014C000FF24F394C0E0D0E0C62EDD2460E08F2D31
:1014D00090E08C219D21892B09F061E0C8010E94D8
:1014E000220AFF0C2196C830D10581F7EE20A9F41D
:1014F000F894D8011196ED91FC91129791818C91FD
:101500008095982391831196ED91FC911297928189
:101510008C918095982392837894DF91CF911F913D
:101520000F91FF90EF90DF90CF9008956CEC40E02A
:101530000E94560A0895EF92FF920F931F93CF9344
:10154000DF938C017B0165E540E00E94560AC0E014
:10155000D0E0F701EC0FFD1FC801608140E00E9460
:10156000560A2196C830D105A1F7DF91CF911F917E
:101570000F91FF90EF900895DF92EF92FF920F93FB
:101580001F93CF93DF93FC010081C181D281F89436
:101590008981D02ED0948D21898378941DE7E02E07
:1015A000FF24115059F182E090E00E944228888186
:1015B00090E08E219F21892BA1F3F8948A818D21BF
:1015C0008A838981802B8983789484EF91E00E94BB
:1015D0004228F89489818D21898380E590E00E94DA
:1015E0004228888110E090E0E822F922EF2809F4EF
:1015F00011E0789484EA91E00E944228812FDF91E3
:10160000CF911F910F91FF90EF90DF900895AF92CF
:10161000BF92DF92EF92FF920F931F93CF93DF93CE
:10162000EC015B018D85882309F061C0CE010E9429
:10163000BC0A882329F41B861D861C8690E06BC09B
:10164000CE0160EF40E00E94560A01E0DD24EE2466
:10165000FF24F394CE010E94D109182FCE010E94DD
:10166000D109113019F48130E1F439C0181709F5A6
:101670008B85081770F460E0FE01EE0DF11D83818B
:1016800090E02F2D30E082239323181619064CF09A
:1016900003C060E0081729F0093008F04CC00C873F
:1016A0004AC0FE01EE0DF11D83818F29838361E025
:1016B00009C0612FFE01EE0DF11D9F2D90958381D4
:1016C00089238383CE010E94220A0F5FFF0C19F445
:1016D000E394FF24F39487E08E1508F0BBCF013428
:1016E00030F0DB86DD2011F581E08D871FC01B8681
:1016F0001D861C8690E0DE0120E030E0F501E20F5F
:10170000F31F13968C91139780832F5F3F4F119691
:101710002830310599F7892FDF91CF911F910F91D3
:10172000FF90EF90DF90BF90AF9008958B8188235A
:10173000F1F291E0E0CFD02EBDCFFF920F931F9337
:101740008C01F62E862F60E00E94AC288F2D90E051
:10175000FC01E656FE4FE491D801EC938A579E4F68
:10176000FC016491E62FF0E0EE0FFF1FE458FE4FFE
:101770008591949112969C938E9311971B961C922F
:101780001B971D961C921D971C961C92F80187E0D2
:1017900090E012863197009711F00197FACF1F91D0
:1017A0000F91FF9008950F931F938C01FC01868188
:1017B00061E00E94EB2884E690E00E944228F80154
:1017C000868160E00E94EB281F910F910895CF92CF
:1017D000DF92EF92FF920F931F93CF93DF93D82E58
:1017E000C92E282F392FC9018C01C0E0D0E0E62E88
:1017F000FF24F801808561E00E94AC28B7010C2E1F
:1018000002C0759567950A94E2F76170F8018085CA
:101810000E94EB2821960F5F1F4FC430D10549F776
:1018200084E690E00E9442288D2D9C2D0E94D30BCF
:10183000DF91CF911F910F91FF90EF90DF90CF90AC
:101840000895FF920F931F938C01F62EFC01848163
:10185000642F0E94EB28F801858161E00E94AC288A
:10186000F801858160E00E94EB286F2D70E084E034
:10187000759567958A95E1F7C8010E94E70BC80145
:101880006F2D0E94E70B1F910F91FF9008951F93FA
:10189000CF93DF93EC018F8160E00E94AC288C81B4
:1018A00060E00E94EB288D8161E00E94EB288E8130
:1018B00060E00E94EB288E8161E00E94EB288AE0C4
:1018C00090E00E9442288F810E943F29182F8E812C
:1018D00060E00E94EB28CE010E94D30B112339F760
:1018E0008F8161E00E94AC288D8160E00E94EB282E
:1018F000DF91CF911F9108950F931F938C0141E0C9
:101900000E94210CC8010E94470C80E090E01F91CA
:101910000F9108950F931F938C0140E00E94210CBA
:10192000C8010E94470C1F910F910895FC01658525
:10193000862F846085876C60CF010E948A0C089591
:10194000DF93CF9300D000D0CDB7DEB7DC01519646
:101950008C915197481708F040E0198280E48A83FF
:1019600084E18B8384E58C83FE01E40FF11D81818A
:10197000680F6068CD010E948A0C0F900F900F9045
:101980000F90CF91DF91089562E00E948A0C089534
:1019900061E00E948A0C0895EF92FF920F931F93CB
:1019A000CF93DF93EC01498B188A8C8161E00E9410
:1019B000AC288D8161E00E94AC288E8161E00E949C
:1019C000AC288C8160E00E94EB288E8160E00E9450
:1019D000EB288D8160E00E94EB2880E593EC0E946B
:1019E00042288E01EE24FF24F801808561E00E94E8
:1019F000AC28F801808560E00E94EB280894E11C87
:101A0000F11C0F5F1F4FF4E0EF16F10469F780EA55
:101A100096E80E944228CE0163E00E94E70B80EA2C
:101A200096E80E944228CE0162E00E94E70B80E126
:101A300097E20E944228CE0162E00E94E70B80E11B
:101A400097E20E944228CE0168E00E94E70B80E105
:101A500097E20E944228CE0168E00E948A0C80E151
:101A600097E20E944228CE0161E00E948A0C80E148
:101A700097E20E944228CE0166E00E948A0C80E133
:101A800097E20E944228CE0162E00E948A0C80E127
:101A900097E20E944228CE016CE00E948A0C80E10D
:101AA00097E20E944228DF91CF911F910F91FF9002
:101AB000EF9008958F929F92AF92CF92EF920F93F3
:101AC0004C01862FF401648345832683A782008717
:101AD000E186C286A38661E00E94AC28F40185817C
:101AE00061E00E94AC28F401868161E00E94AC288C
:101AF00088E2F4018487C40164E144E00E94CC0CD4
:101B00000F91EF90CF90AF909F908F900895AF92EC
:101B1000CF92EF920F93FC011382128288E092E041
:101B200091838083CF010E945A0D0F91EF90CF9047
:101B3000AF900895611571058105910569F481E003
:101B400090E0A0E0B0E080935F0290936002A093E9
:101B50006102B093620208C060935F0270936002FA
:101B600080936102909362025093640240936302F7
:101B7000809170008E7F809370008091B0008C7F88
:101B80008093B0008091B100877F8093B1008091F5
:101B9000B6008F7D8093B600809170008D7F80931A
:101BA00070008091B10084608093B1008091B10099
:101BB0008C7F8093B10086E090E090936B028093DD
:101BC0006A020895109265021092660210926702EE
:101BD000109268021092690280916A0290916B02E1
:101BE0008093B200E0E7F0E0808181608083089517
:101BF0008091650290916602A0916702B09168029F
:101C00000196A11DB11D8093650290936602A09379
:101C10006702B09368028091650290916602A0917C
:101C20006702B091680220915F023091600240919A
:101C300061025091620282179307A407B50710F161
:101C4000809169028823F1F481E080936902809198
:101C5000650290916602A0916702B0916802821BB2
:101C6000930BA40BB50B8093650290936602A0932F
:101C70006702B0936802E0916302F09164020995F3
:101C80001092690208951F920F920FB60F921124BD
:101C90002F933F934F935F936F937F938F939F9374
:101CA000AF93BF93EF93FF9380916A0290916B0281
:101CB0008093B2000E94F80DFF91EF91BF91AF9118
:101CC0009F918F917F916F915F914F913F912F9154
:101CD0000F900FBE0F901F901895FC0180E192E0CD
:101CE0009183808308950F931F938C010F5A1F4F88
:101CF000CA01DB01F80180839183A283B383BA0117
:101D0000CD011F910F910895FC01E35BFF4F2081EE
:101D1000318142815381B901CA010895FC01EF5A12
:101D2000FF4F2081318142815381B901CA01089559
:101D30008F929F92AF92BF92CF92DF92EF92FF92DB
:101D40000F931F93FC015DEC852E912C880E991E3C
:101D5000D4010C9110E0D801AA0FBB1FAA0FBB1F22
:101D6000A80FB91FAB5ABF4FFE96C080D180E2804A
:101D7000F380FE97CD92DD92ED92FC92139732E4C0
:101D8000A32EB12CAE0EBF1E0F5F1F4FC8016EE118
:101D900070E00E94CC2B880F991F880F991FE80FC5
:101DA000F91FEB5AFF4FC701B601208131814281F3
:101DB00053810E949229F50160837183828393830A
:101DC000C8016EE170E00E94CC2BD4018C9380910D
:101DD0007E028F7D80937E021F910F91FF90EF9086
:101DE000DF90CF90BF90AF909F908F9008952F92EB
:101DF0003F924F925F926F927F928F929F92AF929B
:101E0000BF92CF92DF92EF92FF920F931F93DF93D7
:101E1000CF93CDB7DEB72A970FB6F894DEBF0FBECB
:101E2000CDBFFC0166A177A180A591A562A373A394
:101E300084A395A362A473A484A495A466A277A2A4
:101E400080A691A6A6A4B7A4C0A8D1A8A2A6B3A60E
:101E5000C4A6D5A6268D378D40A151A126A737A7A8
:101E600040AB51AB26A837A840AC51AC22AA33AA4C
:101E700044AA55AAE2ACF3AC04AD15ADED82FE82E6
:101E80000F831887E6AAF7AA00AF11AF8F01025C93
:101E90001F4F1A870987D801ED90FD900D911C9175
:101EA000E982FA820B831C83E2AEF3AE04AF15AF76
:101EB0000E9493297B018C01C401B301A601950105
:101EC0000E94932920E030E040E450E40E944A2B35
:101ED0009B01AC01C801B7010E94932921E735E0BD
:101EE00046E057E40E94FB297B018C01C201B1014D
:101EF00020EC33EC41E65FE30E944A2B9B01AC01EE
:101F0000C801B7010E9493297B018C016D817E81FC
:101F10008F81988528E33AE640E350EC0E944A2BF3
:101F20009B01AC01C801B7010E9493297B018C0180
:101F300069817A818B819C8127E735EF47E350E403
:101F40000E944A2B9B01AC01C801B7010E94932952
:101F5000E985FA85608371838283938380917E0211
:101F60008F7D80937E022A960FB6F894DEBF0FBE57
:101F7000CDBFCF91DF911F910F91FF90EF90DF9038
:101F8000CF90BF90AF909F908F907F906F905F9019
:101F90004F903F902F9008954F925F926F927F9253
:101FA0008F929F92AF92BF92CF92DF92EF92FF9269
:101FB0000F931F93DF93CF9300D000D0CDB7DEB740
:101FC0008C01FC0186819781A085B18582839383F2
:101FD000A483B58382859385A485B58586839783FD
:101FE000A087B18786859785A089B18982879387E5
:101FF000A487B587EA5BFF4F808191810E9403230C
:102000009B01AC01D8011E966D937D938D939C939B
:10201000519756968D909D90AD90BC905997F80130
:10202000828A938AA48AB58A428C538C648C758C7C
:1020300056964D925D926D927C9259975E968D91D7
:102040009D910D90BC91A02D89839A83AB83BC8315
:10205000828F938FA48FB58F6281738184819581E4
:102060000E9493296B017C01D80116966D917D9198
:102070008D919C9119971A962D913D914D915C915E
:102080001D970E94932920E030E040E450E40E9434
:102090004A2B9B01AC01C701B6010E94932921E79D
:1020A00035E046E057E40E94FB296B017C01C50145
:1020B000B40120EC33EC41E65FE30E944A2B9B0124
:1020C000AC01C701B6010E9493296B017C01C301D9
:1020D000B20128E33AE640E350EC0E944A2B9B0110
:1020E000AC01C701B6010E9493296B017C01698193
:1020F0007A818B819C8127E735EF47E350E40E948A
:102100004A2B9B01AC01C701B6010E949329DC0157
:102110009B01AC01F801268F378F40A351A3035BCD
:102120001F4FCB01F80180839183A283B3838091F9
:102130007E028F7E80937E020F900F900F900F9003
:10214000CF91DF911F910F91FF90EF90DF90CF9093
:10215000BF90AF909F908F907F906F905F904F90C7
:1021600008950F931F93CF93DF93EC01FC01E85B7D
:10217000FF4F608171818281938168537F4F8F4FC0
:102180009F4F608371838283938328EC30E040E02B
:1021900050E00E94DF2B611571058105910519F44E
:1021A000CE010E94CC0FC85BDF4F688179818A81A4
:1021B0009B81C854D04020E137E240E050E00E94CB
:1021C000DF2B611571058105910591F5CE010E9406
:1021D000F70E4E855F856889798982E493E022E075
:1021E00030E00E94552782E493E06CE20E949D2536
:1021F0004E8D5F8D68A179A182E493E022E030E00A
:102200000E94552782E493E06CE20E949D25EE96A1
:10221000488159816A817B81EE9782E493E022E0D4
:1022200030E00E94552782E493E06CE20E949D25F5
:102230008E01085B1F4FF80160817181828193815B
:1022400020E63AEE40E050E00E94DF2B6115710578
:102250008105910541F4CE010E94980EF80110828B
:10226000118212821382DF91CF911F910F910895F5
:10227000FC0180E192E091838083CF010E948D2751
:1022800008950F931F93CF93DF93EC0180E192E0C9
:1022900099838883C85BDF4F188219821A821B8258
:1022A000C854D04086E290E00E949027182F092F52
:1022B00066E071E041E00E941E23FE01EA5BFF4FF1
:1022C000108301831092B9021092B802CF5ADF4FE7
:1022D00080E090E0AAE7B3E488839983AA83BB8374
:1022E000C155D040808191810E940323FE01E35BB0
:1022F000FF4F60837183828393839E01BF01AE0190
:10230000405F5F4FFB0180819181A281B381F90120
:1023100082839383A483B583828B938BA48BB58BA9
:102320002C5F3F4F2417350769F7FE01B2969E01D7
:102330002E5C3F4F8E8D9F8DA8A1B9A18083918384
:10234000A283B383808B918BA28BB38B3496E217DD
:10235000F30781F7CE5BDF4F80E090E0A0E0B0E0D4
:1023600088839983AA83BB83C254D040FE01E35380
:10237000FF4F10829E012B5A3F4FEE96AF0188818E
:102380009981AA81BB81F90181939193A193B19322
:102390009F01E417F50799F7DF91CF911F910F91F6
:1023A00008950895CF93DF93EC018D810E948A28D0
:1023B0002C8185589340E4F0222319F481E08C832A
:1023C0001EC00E94DB27288139814A815B81621B04
:1023D000730B840B950B6B3F71058105910578F0AC
:1023E0000E94DB27688379838A839B8381E008C00E
:1023F000222329F01C82188219821A821B8280E013
:10240000DF91CF910895FC01862F108211821282F4
:1024100013821482658360E00E94AC2808958F9235
:102420009F92AF92BF92CF92DF92EF92FF920F9363
:102430001F93DF93CF93CDB7DEB7C055D0400FB613
:10244000F894DEBF0FBECDBFA5C082E493E00E942A
:10245000AF24182F82E493E0612F0E94C525143524
:1024600091F5EE24FF248701AA24BB2482E493E0A3
:102470000E94AF24C82EDD24C7FCD09480ED9FEFCE
:10248000C80ED91E9AE0C916D10488F4C801B70154
:102490002AE030E040E050E00E94AD2B76010027BA
:1024A000F7FC0095102FE60EF71E081F191F089461
:1024B000A11CB11C8AE0A816B104C1F6C801B7017D
:1024C0000E94FB0867C0103509F064C05BC082E45D
:1024D00093E00E94AF24F82E082F112707FD1095D6
:1024E000005310400A30110588F4C601B5012AE0F6
:1024F00030E040E050E00E94AD2B5801CC24B7FC06
:10250000C094DC2CA60EB71EC81ED91E9CE2F9167C
:10251000F1F610E082E493E00E94AF24282F99277F
:1025200087FD9095C0970A9710F02E3239F4103538
:1025300028F4F401E10FF11D20831F5F2B3351F7C5
:10254000C4010E942F027B018C0182E493E06BE0C6
:1025500071E00E94B72682E493E0B601A5012AE06B
:1025600030E00E94552682E493E061E271E00E942F
:10257000B72682E493E0B801A70122E030E00E9490
:10258000582704C04E010894811C911CAA24BB2426
:1025900065019DCF82E493E00E947E240B970CF0AE
:1025A00054CFC05BDF4F0FB6F894DEBF0FBECDBF78
:1025B000CF91DF911F910F91FF90EF90DF90CF901F
:1025C000BF90AF909F908F900895FC0188E192E0BA
:1025D000918380830895EF92FF920F931F93CF937F
:1025E000DF937C018B016115710549F1FC01C4A1E8
:1025F000D5A1209749F4FB0101900020E9F731971C
:10260000CF01861B970B10C0CB01BE010E94330285
:102610000097A9F0CE010E94D701D8010D900020AB
:10262000E9F7CD01801B910B0E942D01F70184A3D6
:1026300095A3B8010E943C0281E0F70187A3DF91D6
:10264000CF911F910F91FF90EF900895EF92FF921D
:102650000F931F93CF93DF937C018B01611571055D
:1026600089F1FC01C2A1D3A1209789F4FB0101905B
:102670000020E9F73197CF01861B970B0E942D01AF
:10268000F70182A393A3B8010E943C021BC0CB01B7
:10269000BE010E9433020097A9F0CE010E94D7012B
:1026A000D8010D900020E9F7CD01801B910B0E940D
:1026B0002D01F70182A393A3B8010E943C0281E09F
:1026C000F70186A3DF91CF911F910F91FF90EF90BB
:1026D00008950F931F93CF93DF93EC016E857F8551
:1026E000888999892E8D3F8D48A159A10E94F7298B
:1026F0008823F1F088A599A560E041E00E94A00C34
:1027000088A599A565E271E00E94B7264E855F8590
:102710006889798988A599A522E030E00E9455272B
:102720008E859F85A889B9898E8F9F8FA8A3B9A30D
:102730006A817B818C819D812A893B894C895D8955
:102740000E94F7298823F1F088A599A560E042E06E
:102750000E94A00C88A599A56BE271E00E94B726A3
:102760004A815B816C817D8188A599A522E030E05A
:102770000E9455278A819B81AC81BD818A8B9B8B6E
:10278000AC8BBD8B6E817F81888599852E893F8931
:10279000488D598D0E94F7298823F1F088A599A5C5
:1027A00060E043E00E94A00C88A599A561E371E078
:1027B0000E94B7264E815F816885798588A599A595
:1027C00022E030E00E9455278E819F81A885B9853F
:1027D0008E8B9F8BA88FB98F8EA1882369F088A5D7
:1027E00099A56CE042E00E94A00C6AA17BA188A59B
:1027F00099A50E94B7261EA28FA1882369F088A5FB
:1028000099A56CE043E00E94A00C6CA17DA188A575
:1028100099A50E94B7261FA20E94F608892B81F174
:1028200088A599A56CE041E00E94A00C08A519A517
:102830000E94AB09BC01C8014AE050E00E94A426F6
:1028400088A599A567E371E00E94B72608A519A598
:102850000E94A309BC01C8014AE050E00E94A426DE
:1028600088A599A567E371E00E94B72608A519A578
:102870000E949B09BC01C8014AE050E00E94A426C6
:10288000DF91CF911F910F910895FC0188E192E0B3
:1028900091838083CF010E948D2708958F929F920C
:1028A000AF92CF92EF92FF920F931F934C0188E16A
:1028B00092E0F4019183808313A212A215A214A2C4
:1028C00082E190E00E949027182FF92E63E044E007
:1028D00025E006E077E0E72E58E0C52E39E0A32E8C
:1028E0000E94870DF40110A7F1A681E086A387A3BB
:1028F0001F910F91FF90EF90CF90AF909F908F908E
:102900000895FC0180E292E0918380830895FC01A8
:102910002281338144815581B901CA010895FC01A6
:102920002681378140855185B901CA0108950F93E9
:102930001F93DB018A019B01FC010683178320871B
:102940003187BA01CD011F910F9108958F929F9207
:10295000AF92BF92CF92DF92EF92FF920F931F93AD
:102960009C015CEC852E912C880E991ED4010C9153
:1029700010E00B5E1F4FF801EE0FFF1FEE0FFF1F61
:10298000E80FF91F2A5B3F4FD901CD90DD90ED9004
:10299000FC9026543040C082D182E282F38290E5DE
:1029A000A92EB12CA20EB31E04511040C8016EE135
:1029B00070E00E94CC2BFC017596EE0FFF1FEE0F0E
:1029C000FF1FE20FF31FC701B60120813181428151
:1029D00053810E949229F5016083718382839383DE
:1029E000C8016EE170E00E94CC2BD4018C938091E1
:1029F0007E028F7D80937E021F910F91FF90EF905A
:102A0000DF90CF90BF90AF909F908F9008952F92BE
:102A10003F924F925F926F927F928F929F92AF926E
:102A2000BF92CF92DF92EF92FF920F931F93DF93AB
:102A3000CF9300D000D000D0CDB7DEB76C01DC0161
:102A40009E966D917D918D919C91D197F60162A793
:102A500073A784A795A742A853A864A875A89E96B3
:102A60004D925D926D927C92D197D6968D909D906D
:102A7000AD90BC90D99782AA93AAA4AAB5AA26A180
:102A800037A140A551A5D6962D933D934D935C93C8
:102A9000D997EEE32E2E312C2C0C3D1CF101E08059
:102AA000F18002811381DA96ED92FD920D931C93D1
:102AB000DD97F601EE5BFF4FE080F180028113812C
:102AC000D101ED92FD920D931C93139786010A5B41
:102AD0001F4F1E830D83D801ED90FD900D911C9129
:102AE000E982FA820B831C83E082F18202831383E2
:102AF0000E9493297B018C01C301B201A5019401BD
:102B00000E94932920E030E040E450E40E944A2BE8
:102B10009B01AC01C801B7010E94932921E735E070
:102B200046E057E40E94FB297B018C01F60162AD6F
:102B300073AD84AD95AD20EC33EC41E65FE30E94CC
:102B40004A2B9B01AC01C801B7010E9493297B016C
:102B50008C01D1016D917D918D919C9128E33AE694
:102B600040E350EC0E944A2B9B01AC01C801B70125
:102B70000E9493297B018C0169817A818B819C81E0
:102B800027E735EF47E350E40E944A2B9B01AC0155
:102B9000C801B7010E949329ED81FE816083718392
:102BA0008283938326960FB6F894DEBF0FBECDBF07
:102BB000CF91DF911F910F91FF90EF90DF90CF9019
:102BC000BF90AF909F908F907F906F905F904F904D
:102BD0003F902F9008954F925F926F927F928F92C5
:102BE0009F92AF92BF92CF92DF92EF92FF920F939C
:102BF0001F93DF93CF9300D000D0CDB7DEB78C0109
:102C0000FC0186859785A089B18982879387A487EF
:102C1000B58782899389A489B58986879787A08B90
:102C2000B18B86899789A08DB18D828B938BA48B74
:102C3000B58BE65BFF4F808191810E9403239B014E
:102C4000AC01D80156966D937D938D939C935997C3
:102C50005E968D909D90AD90BC909197F801828E7C
:102C6000938EA48EB58E42A053A064A075A05E96EC
:102C70004D925D926D927C92919796968D919D91D9
:102C80000D90BC91A02D89839A83AB83BC8382A3D2
:102C900093A3A4A3B5A362857385848595850E94BB
:102CA00093296B017C01D8011E966D917D918D91C8
:102CB0009C91519752962D913D914D915C915597D4
:102CC0000E94932920E030E040E450E40E944A2B27
:102CD0009B01AC01C701B6010E94932929E939E99A
:102CE00048E854E40E94FB296B017C01C501B40152
:102CF00028EF38EF48E25FE30E944A2B9B01AC01CA
:102D0000C701B6010E9493296B017C01C301B20186
:102D10002DEA37E340E150EC0E944A2B9B01AC01C5
:102D2000C701B6010E9493296B017C0169817A81F8
:102D30008B819C812EE731E845E250E40E944A2BCA
:102D40009B01AC01C701B6010E949329DC019B01E4
:102D5000AC01F80126A337A340A751A7CB0182837A
:102D60009383A483B5830F900F900F900F90CF9112
:102D7000DF911F910F91FF90EF90DF90CF90BF9068
:102D8000AF909F908F907F906F905F904F9008953D
:102D90000F931F93CF93DF93EC01FC01E45BFF4F94
:102DA000608171818281938168537F4F8F4F9F4FE4
:102DB000608371838283938328EC30E040E050E0AD
:102DC0000E94DF2B611571058105910519F4CE0173
:102DD0000E94EB15C45BDF4F688179818A819B81FA
:102DE000CC54D04020E137E240E050E00E94DF2B9D
:102DF0006115710581059105A1F5CE010E940715A8
:102E00004E895F89688D798D82E493E022E030E01D
:102E10000E94552782E493E06CE20E949D254EA11A
:102E20005FA168A579A582E493E022E030E00E94EA
:102E3000552782E493E06CE20E949D25CA5BDF4F38
:102E4000488159816A817B81C654D04082E493E0F5
:102E500022E030E00E94552782E493E06CE20E9479
:102E60009D258E01045B1F4FF80160817181828175
:102E7000938120E63AEE40E050E00E94DF2B61159E
:102E800071058105910541F4CE010E94A614F80157
:102E90001082118212821382DF91CF911F910F91C4
:102EA0000895FC0180E292E091838083CF010E942B
:102EB0008D2708950F931F93CF93DF93EC0180E24A
:102EC00092E099838883C45BDF4F188219821A824B
:102ED0001B82CC54D04086E290E00E949027182FAD
:102EE000092F6FE371E040E00E941E23FE01E65BC4
:102EF000FF4F108301831092B9021092B80280E054
:102F000090E0AAE7B3E48E839F83A887B987808186
:102F100091810E9403236A837B838C839D83FE01BE
:102F20009E01205F3F4F8A819B81AC81BD8182875A
:102F30009387A487B587828F938FA48FB58F34969C
:102F4000E217F30781F7FE01BA969E01265C3F4F18
:102F50008EA19FA1A8A5B9A580839183A283B383E5
:102F6000808B918BA28BB38B3496E217F30781F79A
:102F7000CE010E940715C05BDF4F80E090E0A0E02B
:102F8000B0E088839983AA83BB83C055D040FE01FB
:102F9000E453FF4F10829E012C5A3F4FCA5BDF4F14
:102FA000AF0188819981AA81BB81F90181939193B5
:102FB000A193B1939F01E417F50799F7DF91CF91A2
:102FC0001F910F910895FC018181861711F480E013
:102FD0000895662341F081E08183808160E00E9452
:102FE000EB2881E008951182808161E00E94EB2846
:102FF00081E008951F93CF93DF93EC01862F142F68
:103000006883498361E00E94AC28112319F088810C
:1030100060E002C0888161E00E94EB28DF91CF91DF
:103020001F910895FC0188E292E0918380830895C6
:10303000FC0188E292E09183808308950895FC0169
:1030400088E292E091838083CF010E948D270895CA
:1030500080917E02886080937E020895AF92CF9225
:10306000EF920F938130910509F56F5F7F4F79F5EE
:103070008CE692E063E10E94031282E792E065E150
:103080000E94031288E792E064E10E9403128FE736
:1030900092E063E044E025E006E077E0E72E58E0C8
:1030A000C52E39E0A32E0E94870D11C0892B79F41B
:1030B0006F5F7F4F61F488E792E00E94D11182E751
:1030C00092E00E94D1118CE692E00E94D1110F9102
:1030D000EF90CF90AF90089580E090E06FEF7FEF9A
:1030E0000E942E18089581E090E06FEF7FEF0E941C
:1030F0002E1808950F931F9382E792E00E94D21139
:10310000882369F082E493E066E471E00E946B2713
:10311000809191029091920261E00E94E52188E7FE
:1031200092E00E94D211882369F082E493E069E57D
:1031300071E00E946B2780919102909192026FEF53
:103140000E94E5218CE692E00E94D211882389F04A
:10315000609195026F5F633008F060E060939502C4
:1031600010929602809191029091920270E00E94DA
:103170007F1980919102909192020E94D2218091B8
:103180007E02877F80937E020091930210919402C9
:1031900080919102909192020E94761DF8016683BF
:1031A0007783808791870091930210919402809198
:1031B0009102909192020E946A1DF80162837383CA
:1031C00084839583009193021091940280919102DF
:1031D000909192020E949A1CF80166877787808BF3
:1031E000918B0091930210919402809191029091A1
:1031F00092020E942E1DBC01C8010E94261300915C
:1032000093021091940280919102909192020E94F7
:10321000DE1CBC01C8010E94EB12809193029091C8
:1032200094020E94691382E493E00E947E24892B19
:1032300011F00E940F121F910F9108950F931F9389
:1032400002E413E0C80140E855E260E070E00E944B
:10325000F82382E00E94872864E670E080E090E036
:103260000E94E927C8016EE671E00E946B27C80141
:103270000E94A52580E690E00E949027182F092F34
:103280000E943B2210939102009392020FE712E0FA
:10329000C80164E144E00E94CC0CC8010E94C80C43
:1032A000C8010E94C40CC80160E040E00E94A00C6C
:1032B000C80161E871E00E94B726C8010E94960C1F
:1032C0008AE290E00E949027182F092F0E944E1446
:1032D000109393020093940268EC70E080E090E019
:1032E00048E258E10E949A0D0E94E20D1F910F9151
:1032F0000895FC0180E392E0918380830895FC01AE
:10330000758B648B0895CF93DF93EC018A819B8149
:103310000E948E0EEA81FB81FE96208131814281DE
:1033200053810E94F72988236CF480E090E0A0EAA2
:10333000B0E48E8B9F8BA88FB98F80E090E0A0EADD
:10334000B0EC0CC080E090E0A0E2B1E48E8B9F8BEB
:10335000A88FB98F80E090E0A0E2B1EC8A8F9B8FBC
:10336000AC8FBD8FDF91CF9108950F931F938C0188
:103370000E94DB279B01AC01F80182A593A5A4A5BF
:10338000B5A5281B390B4A0B5B0BB901CA011F916C
:103390000F9108950F931F938C010E94DB279B01CF
:1033A000AC01F80186A197A1A0A5B1A5281B390BF6
:1033B0004A0B5B0BB901CA011F910F9108950F933E
:1033C0001F938C010E94DB279B01AC01F80182A1B5
:1033D00093A1A4A1B5A1281B390B4A0B5B0BB90122
:1033E000CA011F910F9108954F925F926F927F9241
:1033F0008F929F92AF92BF92CF92DF92EF92FF9205
:103400000F931F93CF93DF938C01DC01D3968C91A4
:10341000D397882309F433C152968D919C91539789
:10342000029709F42CC11496CD91DC911597CE5BCF
:10343000DF4FC880D980EA80FB80C254D040FE01B3
:10344000EA5BFF4F6081718182819381A7019601C0
:103450000E94F72918160CF494C0EE96C701B60125
:10346000288139814A815B810E94462B88230CF494
:1034700088C0F801C4AAD5AAE6AAF7AAE05CFF4F63
:10348000608171818281938120E030E040E050E4EE
:103490000E9493294B015C01C701B601A50194016B
:1034A0000E94462B18160CF042C00C5B1F4FD8012F
:1034B0004D905D906D907C9004541040C701B60112
:1034C000A50194010E9492292FE832EC45EF5CE3BC
:1034D0000E944A2B6B017C012AE939E949E95EE344
:1034E0000E94F72987FD05C020E030E040EC5FE353
:1034F0000AC0C701B6012AE939E949E95FE30E9438
:1035000093299B01AC010C5B1F4FC301B2010E94C8
:103510004A2BF801608371838283938304541040A3
:10352000D8011A968D919C911B970E941E18F80144
:1035300084A895A8A6A8B7A8E05CFF4F6081718118
:103540008281938120E030E040E85FE30E9492298D
:103550006B017C01C501B401A70196010E94F72906
:1035600088230CF08AC00C5B1F4FD8014D905D90F2
:103570006D907C9004541040C501B401A7019601E0
:1035800047C0C8010E94CA19615A794D88409040CD
:1035900008F475C0C8010E94DF19615A7B4B8D4049
:1035A000904008F46CC0D8011496ED91FC911597E9
:1035B000EA5BFF4FC080D180E280F380F801E05CDD
:1035C000FF4F608171818281938120E030E040E88B
:1035D0005FE30E9492294B015C01C701B601A5017E
:1035E00094010E94F72988230CF049C0F801C4AA6D
:1035F000D5AAE6AAF7AA0C5B1F4FD8014D905D90A3
:103600006D907C9004541040C701B601A50194014F
:103610000E9492292FE832EC45EF5CE30E944A2B8E
:103620006B017C012AE939E949E95EEB0E94462BEE
:1036300018162CF020E030E040E05FE30AC0C7013C
:10364000B6012DEC3CEC4CE45FE30E9493299B0116
:10365000AC010C5B1F4FC301B2010E944A2BF80161
:10366000608371838283938304541040D8011A9637
:103670008D919C911B970E941E18F80113AAD801E6
:10368000D2968C91D297882309F421C152968D91BC
:103690009C915397019709F41AC11496CD91DC912E
:1036A0001597CE5BDF4FC880D980EA80FB80C2547B
:1036B000D040FE01EA5BFF4F60817181828193817E
:1036C000A70196010E94462B88230CF483C0EE9636
:1036D000C701B601288139814A815B810E94F7299F
:1036E00018160CF477C0F801C0AED1AEE2AEF3AE5E
:1036F00064AD75AD86AD97AD20E030E040E050E4BC
:103700000E9492294B015C01C701B601A5019401F9
:103710000E94F72988230CF042C0085B1F4FD80194
:103720004D905D906D907C9008541040C501B4019F
:10373000A70196010E9492292FE832EC45EF5CE345
:103740000E944A2B6B017C012AE939E949E95EE3D1
:103750000E94F72987FD05C020E030E040EC5FE3E0
:103760000AC0C701B6012AE939E949E95FE30E94C5
:1037700093299B01AC01085B1F4FC301B2010E945A
:103780004A2BF8016083718382839383085410402D
:10379000D8011A968D919C911B970E941E18F801D2
:1037A00080AC91ACA2ACB3AC64AD75AD86AD97AD59
:1037B00020E030E040E85FE30E9493296B017C0148
:1037C000C501B401A70196010E94462B18160CF4FE
:1037D0003AC07BC0C8010E94DF19615279428B4117
:1037E000904008F474C0C8010E94CA196154774718
:1037F0008B41904008F46BC0D8011496ED91FC9178
:103800001597EA5BFF4FC080D180E280F380DC96A1
:103810006D917D918D919C91DF9720E030E040E8A3
:103820005FE30E9493294B015C01C701B601A5012A
:1038300094010E94462B18160CF049C0F801C0AE46
:10384000D1AEE2AEF3AE085B1F4FD8014D905D9054
:103850006D907C9008541040C701B601A5019401F9
:103860000E9492292FE832EC45EF5CE30E944A2B3C
:103870006B017C012AE939E949E95EEB0E94462B9C
:1038800018162CF020E030E040E05FE30AC0C701EA
:10389000B6012DEC3CEC4CE45FE30E9493299B01C4
:1038A000AC01085B1F4FC301B2010E944A2BF80113
:1038B000608371838283938308541040D8011A96E1
:1038C0008D919C911B970E941E18F80112AADF91FE
:1038D000CF911F910F91FF90EF90DF90CF90BF900D
:1038E000AF909F908F907F906F905F904F900895D2
:1038F0000F931F938C01FC01848195810E948F148A
:10390000005C1F4FF80160837183828393831F9152
:103910000F9108950F931F938C01FC018481958171
:103920000E948F14F80164AF75AF86AF97AF1F91F7
:103930000F910895FC01848995890197029728F4D5
:10394000828193810E948E0E04C0848195810E94A1
:103950008F1420E030E040E251E40E94FB29E62F82
:103960002E2F372F482F592FB901CA010895CF9311
:10397000DF93EC018A899B898230910549F083307D
:1039800091057CF4019769F48E819F8161E00CC000
:103990008E819F8160E00E94E3178885998561E0B0
:1039A00008C08E819F8160E00E94E3178885998519
:1039B00060E00E94E317DF91CF910895EF92FF92AC
:1039C0000F931F93CF93DF93EC018A899B898230F9
:1039D0009105C9F0833091052CF4009771F001979F
:1039E00049F40EC084309105A1F08430910574F043
:1039F000059791F026E931E029C066E971E00EC033
:103A00006EE971E00BC066EA71E008C06EEA71E031
:103A100005C063EB71E002C06BEB71E0DB010D9060
:103A20000020E9F78D0101501040061B170B86E5B9
:103A3000E82EF12CEC0EFD1EC701A8010E944302E6
:103A4000C00FD11FCA5ADF4F18829701C901DF91F9
:103A5000CF911F910F91FF90EF900895CF93DF9337
:103A6000FC01848995898130910599F08230910516
:103A7000D9F0892B19F026E931E028C0EF01C45BA9
:103A8000DF4FA5ECB1E08AE00D9009928150E1F79B
:103A900015C0EF01C45BDF4FA0EDB1E08AE00D90EF
:103AA00009928150E1F70AC0EF01C45BDF4FABED33
:103AB000B1E08AE00D9009928150E1F7EA5AFF4F98
:103AC0001082E655F0409F01245B3F4FC901DF9112
:103AD000CF910895FC01848195810E94871420E094
:103AE00030E040E251E40E94FB290895FC0182810C
:103AF00093810E94840E20E030E040E251E40E9475
:103B0000FB2908952F923F924F925F926F927F927E
:103B10008F929F92AF92BF92CF92DF92EF92FF92DD
:103B20000F931F93CF93DF93EC018A899B89853094
:103B300091055CF48330910564F48130910509F4BA
:103B4000AEC0029709F089C11AC1059709F085C175
:103B500088C10E94DB276AA77BA78CA79DA7CE01FF
:103B60000E94DF19615A7B4B8D40904018F48AA95E
:103B7000882359F4CE010E94CA19615C77428940BA
:103B8000904040F48BA9882329F08A899B89049767
:103B900009F071C08C819D810E9487147B018C018A
:103BA0008C819D810E948F1420E030E040E450E43D
:103BB0000E9493299B01AC01C801B7010E94462BCA
:103BC00018160CF58C899D89892BD1F0EA81FB812F
:103BD000FE96E080F18002811381FE97CF010E9462
:103BE0008E0E20E030E040E05FE30E9493299B01CD
:103BF000AC01C801B7010E94462B18160CF031C168
:103C000081E090E02CC18C819D810E9487147B0112
:103C10008C018C819D810E948F1420E030E040E473
:103C200050E40E9492299B01AC01C801B7010E9497
:103C3000F729882304F58C899D89892BC9F08A810D
:103C40009B810E94840E7B018C018A819B810E9452
:103C50008E0E20E030E040E05FE30E9492299B015D
:103C6000AC01C801B7010E94F72988230CF0F9C004
:103C700082E090E0F4C0CE010E94DF1961547747E2
:103C80008B41904008F01AAACE010E94CA19615ACD
:103C90007B4B8D40904008F4E4C01BAAE2C081E059
:103CA0008AAB0E94DB276AA37BA38CA39DA3C85B7E
:103CB000DF4F288039804A805B80C854D040CE01D5
:103CC0000E94B5190E94942A20E030E04AE754E4AB
:103CD0000E94FB2920E030E046E954E40E94462B94
:103CE00018165CF40F2EF0E06F2EF0E07F2EF6E950
:103CF0008F2EF4E49F2EF02D0DC0CE010E94B51939
:103D00000E94942A20E030E04AE754E40E94FB2914
:103D10003B014C018C819D810E9487147B018C01A9
:103D20008C819D810E948F145B016C01C201B101E5
:103D3000A40193010E944A2B20E030E040E752E4C6
:103D40000E94FB299B01AC01C801B7010E94922986
:103D50007B018C01C601B50120E030E040E050E07D
:103D60000E9493299B01AC01C801B7010E94F72969
:103D700018160CF476C0CE010E948A1C6EC00E94F8
:103D8000DB276EA37FA388A799A781E08BABCC5BD1
:103D9000DF4F288039804A805B80C454D040CE01F8
:103DA0000E94B5190E94942A20E030E04AE754E4CA
:103DB0000E94FB2920E030E046E154E40E94462BBB
:103DC00018165CF40F2EF0E06F2EF0E07F2EF6E177
:103DD0008F2EF4E49F2EF02D0DC0CE010E94B51958
:103DE0000E94942A20E030E04AE754E40E94FB2934
:103DF0003B014C018C819D810E9487147B018C01C9
:103E00008C819D810E948F145B016C01C201B10104
:103E1000A40193010E944A2B20E030E040E752E4E5
:103E20000E94FB299B01AC01C801B7010E949329A4
:103E30007B018C01C601B50120E030E040E050E09C
:103E40000E9493299B01AC01C801B7010E94462B37
:103E500088233CF0CE010E94781C83E090E09B8B8D
:103E60008A8BDF91CF911F910F91FF90EF90DF90A0
:103E7000CF90BF90AF909F908F907F906F905F900A
:103E80004F903F902F9008958F929F92AF92BF9244
:103E9000CF92DF92EF92FF920F931F93CF93DF9316
:103EA000EC018C899D890197029708F0E5C18A8110
:103EB0009B810E948E0E0A811B81F801FE96208153
:103EC0003181428153810E9492295B016C0120E083
:103ED00030E040E050E00E94462B18165CF4C6012A
:103EE000B50120E030E040EA50E40E94F72987FD68
:103EF0000CC062C0C601B50120E030E040EA50ECE1
:103F00000E94462B18160CF057C00E5B1F4FF8018D
:103F1000E080F18002811381C801B70123E333E31C
:103F200043E35FE30E94F729181654F0C801B70174
:103F300020E030E040E050E00E94462B87FF14C0B4
:103F4000C801B70123E333E343EB5FEB0E94462B49
:103F5000882394F1C801B70120E030E040E050E050
:103F60000E94F729181644F1C601B50120E030E09F
:103F700040E050E00E94462B18165CF4C601B501E3
:103F800020E030E040E05FE30E94462B18165CF032
:103F900021C0C601B50120E030E040E05FEB0E94A7
:103FA000F7298823BCF46EA57FA588A999A9A60145
:103FB00095010E9493290AC06EA57FA588A999A999
:103FC00026E636E646E65FE30E944A2B6EA77FA709
:103FD00088AB99ABC601B50120E030E040E050E08D
:103FE0000E94F7296E897F89888D998D20E030E0C5
:103FF00040E050E00E9493297B018C0120E030E0FA
:1040000040EA50E40E94F72988235CF40F2EF0E088
:10401000EF2EF0E0FF2EF0EA0F2FF0E41F2FF02D2F
:1040200014C0C801B70120E030E040E251E40E9432
:10403000462B181654F40F2EF0E0EF2EF0E0FF2E72
:10404000F0E20F2FF1E41F2FF02DEE8AFF8A088F88
:10405000198F6A8D7B8D8C8D9D8D20E030E040E046
:1040600050E00E9493297B018C0120E030E040E287
:1040700051EC0E94F72988235CF40F2EF0E0EF2E1C
:10408000F0E0FF2EF0E20F2FF1EC1F2FF02D14C007
:10409000C801B70120E030E040EA50EC0E94462B16
:1040A000181654F40F2EF0E0EF2EF0E0FF2EF0EA99
:1040B0000F2FF0EC1F2FF02DEA8EFB8E0C8F1D8F33
:1040C0008A819B810E948E0E7B018C018A809B805D
:1040D000C601B5012E893F89488D598D0E944A2B12
:1040E0009B01AC01C801B7010E9493297B018C019F
:1040F0006E8D7F8D88A199A12EA53FA548A959A9AC
:104100000E944A2B9B01AC01C801B7010E94932970
:104110007B018C01F401EE5BFF4F6A8D7B8D8C8DF2
:104120009D8D20813181428153810E944A2B9B01C8
:10413000AC01C801B7010E94932920E030E040E2C1
:1041400052E40E94F72988232CF4A0E050E040E2DA
:1041500062E489C0C4010E948E0E7B018C018A80BA
:104160009B80C601B5012E893F89488D598D0E94DB
:104170004A2B9B01AC01C801B7010E9493297B0126
:104180008C016E8D7F8D88A199A12EA53FA548A990
:1041900059A90E944A2B9B01AC01C801B7010E949A
:1041A00093297B018C01F401EE5BFF4F6A8D7B8DBF
:1041B0008C8D9D8D20813181428153810E944A2BBB
:1041C0009B01AC01C801B7010E94932920E030E0B7
:1041D00046E953E40E94462B18162CF4A0E050E068
:1041E00046E963E440C0C4010E948E0E7B018C014D
:1041F0008A809B80C601B5012E893F89488D598DE3
:104200000E944A2B9B01AC01C801B7010E9493296F
:104210007B018C016E8D7F8D88A199A12EA53FA574
:1042200048A959A90E944A2B9B01AC01C801B701BA
:104230000E9493297B018C01F401EE5BFF4F6A8D94
:104240007B8D8C8D9D8D20813181428153810E9497
:104250004A2B9B01AC01C801B7010E949329A62FEC
:10426000572F482F692FC4012A2F352FE42FF62FFF
:10427000A901BF010E94730EDF91CF911F910F9191
:10428000FF90EF90DF90CF90BF90AF909F908F9076
:104290000895CF93DF93EC016E857F858889998996
:1042A00068537F4F8F4F9F4F6E877F87888B998B87
:1042B00020E137E240E050E00E94DF2B61157105FC
:1042C0008105910509F043C0CE010E94F419CE0189
:1042D0000E94441F8C819D810E948714AB01BC0108
:1042E00082E493E022E030E00E9455278C819D819A
:1042F0000E948F14AB01BC0182E493E022E030E025
:104300000E9455278A819B810E94840EAB01BC01CB
:1043100082E493E022E030E00E945527CE010E9423
:10432000DE1CBC0182E493E00E94B72682E493E0A5
:104330006CE20E949D25CE010E942E1DBC0182E4EC
:1043400093E00E94B72682E493E00E94A5256E8543
:104350007F858889998928EE33E040E050E00E940B
:10436000DF2B611571058105910531F4CE010E94A5
:10437000821DCE010E94B71C6E857F858889998930
:1043800020E63AEE40E050E00E94DF2B6115710517
:104390008105910521F41E861F86188A198ADF91EE
:1043A000CF9108950F931F938C01FC01828193811B
:1043B0000E94B110F801848195810E94C816C8013D
:1043C0000E9449211F910F910895BF92CF92DF92D1
:1043D000EF92FF920F931F93FC01B62E848995896B
:1043E00081309105D9F4C280D380C6010E948E0E1F
:1043F0007B018C016B2D772767FD7095872F972F99
:104400000E94962A9B01AC01C801B7010E94932922
:10441000AB01BC01C6010E94730E1CC0892BD1F4F4
:10442000C480D580C6010E948F147B018C016B2D46
:10443000772767FD7095872F972F0E94962A9B01FB
:10444000AC01C801B7010E949329AB01BC01C601B0
:104450000E9497141F910F91FF90EF90DF90CF90E3
:10446000BF900895FC0180E392E091838083CF01A7
:104470000E948D270895EF92FF920F931F938C0156
:1044800080E392E0F8019183808382E090E00E94D3
:104490009027F82EE92E62E041E00E94FA17F80119
:1044A000F682E78282E090E00E949027F82EE92EC3
:1044B0006AE041E00E94FA17F801F086E1868EEC8E
:1044C00090E00E949027F82EE92E66EE71E041E020
:1044D0000E944111F801F282E3828DEC90E00E948B
:1044E0009027F82EE92E0E945A17F801F482E582EF
:1044F00082E090E00E949027F82EE92E0E94121888
:10450000F801F286E386158A148A84E090E0938BA2
:10451000828BC8010E948319C8010E94441FF801C0
:1045200012A213A214A215A216A217A210A611A6D7
:1045300012A613A614A615A612AA13AA80E090E04C
:10454000A9E7B3E480AF91AFA2AFB3AF80E090E052
:10455000ABE7B3E484AB95ABA6ABB7AB0C5B1F4F3B
:104560008DEC9CECACE4BEE3F80181939193A193B4
:10457000B1938F0180E090E0A0EAB0E48083918362
:10458000A283B38308541040F80116861786108A58
:10459000118A1F910F91FF90EF9008950F931F9331
:1045A00007E912E0C8016CE00E949D0B85EA92E0E9
:1045B000B8010E94CA031F910F910895EF92FF92D4
:1045C0000F931F93CF93DF93EC010E94DB277B01B6
:1045D0008C018091B8029091B9029701281B390B88
:1045E000C9018458934044F08C8D9D8D0E94DE0556
:1045F000F092B902E092B802DF91CF911F910F9132
:10460000FF90EF9008950F931F938C010E94DE227C
:10461000F801848D958D608D0E94FB0620E030E0CE
:1046200040E251E40E944A2B9B01AC01F801208337
:104630003183428353831F910F910895BF92CF928C
:10464000DF92EF92FF920F931F938C016B01B42EB8
:104650008EE090E00E949027F82EE92E6CE00E94F8
:104660009D0BF801F28EE38E83E190E00E9490278B
:10467000F82EE92EF801628D738D0E94CA03F801AD
:10468000F48EE58E8F2D9E2D0E946507F801848D96
:10469000958D6AE00E942207F80180E090E0A0E09A
:1046A000B0E081939193A193B193CF01B60144E11E
:1046B00050E00E944302F801B08E89E0818FB8017A
:1046C000625E7F4F848D958D4B2D0E94CD06F80143
:1046D000848D958D618D0E9422071F910F91FF900F
:1046E000EF90DF90CF90BF90089508951F920F92A2
:1046F0000FB60F9211242F933F934F938F939F9355
:10470000EF93FF934091C6002091FA023091FB0293
:104710002F5F3F4F2F7330708091FC029091FD020C
:104720002817390759F0E091FA02F091FB02E6549C
:10473000FD4F40833093FB022093FA02FF91EF91EB
:104740009F918F914F913F912F910F900FBE0F909E
:104750001F901895E0914E03F0914F03E05CFF4FDE
:104760008191919120813181821B930B8F73907085
:10477000892B11F00E94752308951F920F920FB696
:104780000F9211242F933F938F939F93EF93FF9357
:1047900020913E0330913F0380914003909141036B
:1047A0002817390731F48091C1008F7D8093C100B3
:1047B00014C0E0914003F0914103E250FD4F20818D
:1047C000809140039091410301968F739070909374
:1047D0004103809340032093C600FF91EF919F9186
:1047E0008F913F912F910F900FBE0F901F901895B2
:1047F000AF92BF92DF92EF92FF920F931F93CF93EE
:10480000DF93EC017A018B01DD24403081EE580703
:1048100080E0680780E0780711F0DD24D39491E010
:10482000A92EB12CEC89FD89DD2069F0C5010E8C23
:1048300002C0880F991F0A94E2F7808360E079E054
:104840008DE390E005C0108260E874E88EE190E0AE
:10485000A80197010E94DF2B21503040404050407A
:10486000569547953795279580E12030380720F0F9
:10487000DD2011F0DD24D6CFE889F9893083EA897B
:10488000FB892083EE89FF89408121E030E0C90166
:104890000A8C02C0880F991F0A94E2F7482B4083C4
:1048A000EE89FF894081C9010B8C02C0880F991FD6
:1048B0000A94E2F7482B4083EE89FF894081C901C1
:1048C0000C8C02C0880F991F0A94E2F7482B408392
:1048D000EE89FF8980810D8C02C0220F331F0A945C
:1048E000E2F7209528232083DF91CF911F910F912C
:1048F000FF90EF90DF90BF90AF900895DC011C9681
:10490000ED91FC911D97E05CFF4F219131918081E9
:104910009181281B390B2F733070C9010895DC0178
:104920001C96ED91FC911D97E05CFF4F2081318139
:10493000E054F040DF01AE5BBF4F8D919C91119729
:104940002817390719F42FEF3FEF07C08D919C917D
:10495000E80FF91F8081282F30E0C9010895DC019C
:104960001C96ED91FC911D97E05CFF4F20813181F9
:10497000E054F040DF01AE5BBF4F8D919C911197E9
:104980002817390719F42FEF3FEF10C08D919C9134
:104990001197E80FF91F20818D919C911197019635
:1049A0008F73907011969C938E9330E0C901089597
:1049B000FC0186859785DC01A05CBF4FFC01EE5BA6
:1049C000FF4F2D913C9111978081918128173907D4
:1049D000C1F70895CF93DF93EC01EE85FF85E05C8E
:1049E000FF4F20813181E054F0402F5F3F4F2F7304
:1049F0003070DF01AE5BBF4F8D919C9111972817EE
:104A00003907D1F3E05CFF4F80819181E054F040A1
:104A1000E80FF91F6083EE85FF85E05CFF4F31836F
:104A20002083EE89FF89208181E090E00D8C02C017
:104A3000880F991F0A94E2F7282B208381E090E0E9
:104A4000DF91CF910895109245031092440388EEB0
:104A500093E0A0E0B0E08093460390934703A093D7
:104A60004803B093490388E392E090934303809313
:104A700042038AEB92E090934F0380934E038EEFB4
:104A800092E0909351038093500385EC90E09093D3
:104A900053038093520384EC90E0909355038093EA
:104AA000540380EC90E0909357038093560381EC7D
:104AB00090E0909359038093580386EC90E0909394
:104AC0005B0380935A0384E080935C0383E08093CC
:104AD0005D0387E080935E0385E080935F0381E060
:104AE000809360030895CF92DF92EF92FF920F932D
:104AF0001F93CF93DF937C016B018A01C0E0D0E06C
:104B00000FC0D6016D916D01D701ED91FC9101901F
:104B1000F081E02DC7010995C80FD91F0150104041
:104B20000115110571F7CE01DF91CF911F910F9102
:104B3000FF90EF90DF90CF900895DC01ED91FC9114
:104B40000190F081E02D09950895EF92FF920F9367
:104B50001F938C01DC01ED91FC910190F081E02D1F
:104B60006DE009957C01D801ED91FC910190F081F7
:104B7000E02DC8016AE009959C012E0D3F1DC90179
:104B80001F910F91FF90EF900895EF92FF920F9376
:104B90001F937C01DC01ED91FC910190F081E02DEF
:104BA00009958C01C7010E94A525080F191FC8018E
:104BB0001F910F91FF90EF900895CF93DF93DB014A
:104BC0000D900020E9F71197A61BB70BEC01E881C7
:104BD000F9810280F381E02DAD010995DF91CF913C
:104BE00008954F925F927F928F929F92AF92BF9261
:104BF000CF92DF92EF92FF920F931F93DF93CF93A9
:104C0000CDB7DEB7A1970FB6F894DEBF0FBECDBF0C
:104C10002C01742ECB01223008F42AE019A231E2D3
:104C2000C32ED12CCC0EDD1E822E9924AA24BB24A7
:104C3000672D752FA50194010E94DF2B79018A0150
:104C4000C801B701A50194010E94AD2B472D461B59
:104C50000894C108D1084A3014F4405D01C0495C91
:104C6000F6014083E114F1040105110521F07E2CC9
:104C70005F2DC801DDCFC201B6010E94DD25A196DE
:104C80000FB6F894DEBF0FBECDBFCF91DF911F915D
:104C90000F91FF90EF90DF90CF90BF90AF909F90DB
:104CA0008F907F905F904F900895DC012115310522
:104CB00041F4ED91FC910190F081E02D642F099574
:104CC00008950E94F1250895CF92DF92EF92FF920E
:104CD0000F931F93CF93DF93EC016A017B012115A2
:104CE000310541F4E881F9810190F081E02D642FD4
:104CF00009951FC02A303105D1F477FF17C0E8812C
:104D0000F9810190F081E02D6DE209958C01442735
:104D10005527BA014C195D096E097F09CE012AE0B9
:104D20000E94F1259801280F391F04C02AE00E9433
:104D3000F1259C01C901DF91CF911F910F91FF9047
:104D4000EF90DF90CF900895EF92FF920F931F9313
:104D50007B019A010027F7FC0095102FB801A701ED
:104D60000E9464261F910F91FF90EF9008950E947A
:104D7000DD2508957F928F929F92AF92BF92CF923E
:104D8000DF92EF92FF920F931F93CF93DF934C012B
:104D90007A018B01722ECB01BA0120E030E040E0B5
:104DA00050E00E94F72987FD03C0C0E0D0E00EC0AC
:104DB000D401ED91FC910190F081E02DC4016DE2F0
:104DC0000995EC0117FB109517F9109520E030E0DC
:104DD00040E05FE3AA240BC0CA01B90120E030E043
:104DE00040E251E40E94FB299B01AC01A394A7146B
:104DF00098F3C801B7010E9493295B016C010E94DE
:104E0000682A7B018C01C401B801A7012AE030E0C7
:104E10000E945526C80FD91F772039F0C4016BEEC8
:104E200071E00E94DD25C80FD91FC801B7010E949B
:104E3000942A9B01AC01C601B5010E94922924C0AD
:104E400020E030E040E251E40E944A2B7B018C01DB
:104E50000E94632A5B016C01CC24B7FCC094DC2C5B
:104E6000C401B601A5012AE030E00E946426C80F03
:104E7000D91FC601B5010E94962A9B01AC01C80149
:104E8000B7010E9492297A947720D1F6CE01DF9162
:104E9000CF911F910F91FF90EF90DF90CF90BF9037
:104EA000AF909F908F907F9008950E94BA260895AA
:104EB000EF92FF920F931F937C010E94BA268C0100
:104EC000C7010E94A525080F191FC8011F910F9146
:104ED000FF90EF900895EF92FF920F931F937C0144
:104EE0000E94DD258C01C7010E94A525080F191F0E
:104EF000C8011F910F91FF90EF900895CF93DF931A
:104F00000E944C280E941E19CAEAD3E20E947A1815
:104F10002097E1F30E94AA23F9CF0E94D7010895B8
:104F20000E942D0108951F920F920FB60F92112427
:104F30002F933F938F939F93AF93BF93809165037C
:104F400090916603A0916703B09168033091690363
:104F50000196A11DB11D232F2D5F2D3720F02D5758
:104F60000196A11DB11D2093690380936503909361
:104F70006603A0936703B0936803809161039091E7
:104F80006203A0916303B09164030196A11DB11D5A
:104F90008093610390936203A0936303B0936403CF
:104FA000BF91AF919F918F913F912F910F900FBE25
:104FB0000F901F9018958FB7F8942091650330914A
:104FC000660340916703509168038FBFB901CA011E
:104FD00008959B01AC017FB7F89480916103909193
:104FE0006203A0916303B091640366B5A89B05C0FA
:104FF0006F3F19F00196A11DB11D7FBFBA2FA92FD8
:10500000982F8827860F911DA11DB11D62E0880F82
:10501000991FAA1FBB1F6A95D1F7BC012DC0FFB70E
:10502000F8948091610390916203A0916303B09121
:105030006403E6B5A89B05C0EF3F19F00196A11DDA
:10504000B11DFFBFBA2FA92F982F88278E0F911D52
:10505000A11DB11DE2E0880F991FAA1FBB1FEA9591
:10506000D1F7861B970B885E9340C8F221503040E1
:105070004040504068517C4F211531054105510594
:1050800071F60895019739F0880F991F880F991FBD
:1050900002970197F1F70895789484B5826084BDF2
:1050A00084B5816084BD85B5826085BD85B581602C
:1050B00085BDEEE6F0E0808181608083E1E8F0E08C
:1050C0001082808182608083808181608083E0E8BB
:1050D000F0E0808181608083E1EBF0E0808184609A
:1050E0008083E0EBF0E0808181608083EAE7F0E09C
:1050F0008081846080838081826080838081816000
:1051000080838081806880831092C100089580939D
:10511000F7010895982F8E3008F09E509770809177
:10512000F7018295880F880F807C892B80937C0003
:1051300080917A00806480937A0080917A0086FD65
:10514000FCCF2091780040917900942F80E030E0EE
:10515000282B392BC9010895CF93DF93482F50E0B6
:10516000CA0186569E4FFC0134914A575E4FFA01A0
:105170008491882369F190E0880F991FFC01E85918
:10518000FE4FA591B491FC01EE58FE4FC591D4910C
:10519000662351F42FB7F8948C91932F909589231F
:1051A0008C93888189230BC0623061F42FB7F89407
:1051B0008C91932F909589238C938881832B88835E
:1051C0002FBF06C09FB7F8948C91832B8C939FBF01
:1051D000DF91CF910895482F50E0CA0182559E4F2C
:1051E000FC012491CA0186569E4FFC0194914A57B6
:1051F0005E4FFA013491332309F440C0222351F168
:10520000233071F0243028F42130A1F0223011F540
:1052100014C02630B1F02730C1F02430D9F404C0D6
:10522000809180008F7703C0809180008F7D809374
:10523000800010C084B58F7702C084B58F7D84BD97
:1052400009C08091B0008F7703C08091B0008F7D3E
:105250008093B000E32FF0E0EE0FFF1FEE58FE4FFB
:10526000A591B4912FB7F894662321F48C91909571
:10527000892302C08C91892B8C932FBF0895682FAE
:1052800070E0CB0182559E4FFC012491CB018656E4
:105290009E4FFC0144916A577E4FFB0194919923E4
:1052A00019F420E030E03CC0222351F1233071F0AA
:1052B000243028F42130A1F0223011F514C026301A
:1052C000B1F02730C1F02430D9F404C080918000BF
:1052D0008F7703C0809180008F7D8093800010C005
:1052E00084B58F7702C084B58F7D84BD09C080915D
:1052F000B0008F7703C08091B0008F7D8093B000A5
:10530000892F90E0880F991F84589E4FFC01A5912A
:10531000B4918C9120E030E0842311F021E030E062
:10532000C90108955058BB27AA270ED075C166D170
:1053300030F06BD120F031F49F3F11F41EF45BC1CB
:105340000EF4E095E7FB51C1E92F77D180F3BA174E
:10535000620773078407950718F071F49EF58FC1F3
:105360000EF4E0950B2EBA2FA02D0B01B901900180
:105370000C01CA01A0011124FF27591B99F0593FC4
:1053800050F4503E68F11A16F040A22F232F342F0C
:105390004427585FF3CF469537952795A795F0405A
:1053A0005395C9F77EF41F16BA0B620B730B840B6F
:1053B000BAF09150A1F0FF0FBB1F661F771F881F27
:1053C000C2F70EC0BA0F621F731F841F48F487957F
:1053D00077956795B795F7959E3F08F0B3CF93956E
:1053E000880F08F09927EE0F979587950895D9D0E3
:1053F00008F481E008950CD00FC107D140F0FED031
:1054000030F021F45F3F19F0F0C0511139C1F3C001
:1054100014D198F39923C9F35523B1F3951B550B78
:10542000BB27AA2762177307840738F09F5F5F4F77
:10543000220F331F441FAA1FA9F333D00E2E3AF0B8
:10544000E0E830D091505040E695001CCAF729D0D2
:10545000FE2F27D0660F771F881FBB1F2617370721
:105460004807AB07B0E809F0BB0B802DBF01FF2751
:1054700093585F4F2AF09E3F510568F0B6C000C1B7
:105480005F3FECF3983EDCF3869577956795B7958B
:10549000F7959F5FC9F7880F911D9695879597F9A6
:1054A0000895E1E0660F771F881FBB1F621773071F
:1054B0008407BA0720F0621B730B840BBA0BEE1F34
:1054C00088F7E095089504D06894B111D9C0089583
:1054D000BCD088F09F5790F0B92F9927B751A0F012
:1054E000D1F0660F771F881F991F1AF0BA95C9F778
:1054F00012C0B13081F0C3D0B1E00895C0C0672FB1
:10550000782F8827B85F39F0B93FCCF38695779527
:105510006795B395D9F73EF4909580957095619510
:105520007F4F8F4F9F4F0895E89409C097FB3EF43B
:1055300090958095709561957F4F8F4F9F4F9923E0
:10554000A9F0F92F96E9BB279395F695879577955E
:105550006795B795F111F8CFFAF4BB0F11F460FF1E
:105560001BC06F5F7F4F8F4F9F4F16C0882311F076
:1055700096E911C0772321F09EE8872F762F05C08A
:10558000662371F096E8862F70E060E02AF09A9525
:10559000660F771F881FDAF7880F9695879597F91A
:1055A0000895990F0008550FAA0BE0E8FEEF1616B4
:1055B0001706E807F907C0F012161306E407F50707
:1055C00098F0621B730B840B950B39F40A2661F07B
:1055D000232B242B252B21F408950A2609F4A1401E
:1055E000A6958FEF811D811D089597F99F6780E82B
:1055F00070E060E008959FEF80EC089500240A9425
:105600001616170618060906089500240A9412169D
:105610001306140605060895092E0394000C11F4D0
:10562000882352F0BB0F40F4BF2B11F460FF04C07D
:105630006F5F7F4F8F4F9F4F089557FD9058440FD6
:10564000551F59F05F3F71F04795880F97FB991FE1
:1056500061F09F3F79F0879508951216130614069E
:10566000551FF2CF4695F1DF08C01616170618062B
:10567000991FF1CF86957105610508940895E89406
:10568000BB2766277727CB0197F908958ADF08F4AF
:105690008FEF08950BD0C0CFB1DF28F0B6DF18F040
:1056A000952309F0A2CFA7CF1124EACFC6DFA0F33C
:1056B000959FD1F3950F50E0551F629FF001729FA7
:1056C000BB27F00DB11D639FAA27F00DB11DAA1FC6
:1056D000649F6627B00DA11D661F829F2227B00D13
:1056E000A11D621F739FB00DA11D621F839FA00D9E
:1056F000611D221F749F3327A00D611D231F849FEE
:10570000600D211D822F762F6A2F11249F57504044
:105710008AF0E1F088234AF0EE0FFF1FBB1F661FDF
:10572000771F881F91505040A9F79E3F510570F098
:105730005CCFA6CF5F3FECF3983EDCF38695779580
:105740006795B795F795E7959F5FC1F7FE2B880F93
:10575000911D9695879597F90895629FD001739F43
:10576000F001829FE00DF11D649FE00DF11D929FFD
:10577000F00D839FF00D749FF00D659FF00D99273C
:10578000729FB00DE11DF91F639FB00DE11DF91F60
:10579000BD01CF011124089597FB092E07260AD0D9
:1057A00077FD04D02ED006D000201AF470956195B4
:1057B0007F4F0895F6F7909581959F4F0895A1E248
:1057C0001A2EAA1BBB1BFD010DC0AA1FBB1FEE1F7B
:1057D000FF1FA217B307E407F50720F0A21BB30BC6
:1057E000E40BF50B661F771F881F991F1A9469F742
:1057F00060957095809590959B01AC01BD01CF019E
:105800000895AA1BBB1B51E107C0AA1FBB1FA61707
:10581000B70710F0A61BB70B881F991F5A95A9F759
:1058200080959095BC01CD010895EE0FFF1F059066
:10583000F491E02D0994911106C0803219F089503D
:105840008550D0F708959927882708952F923F9281
:105850004F925F926F927F928F929F92AF92BF9280
:10586000CF92DF92EF92FF920F931F93CF93DF932C
:10587000CDB7DEB7CA1BDB0B0FB6F894DEBF0FBE89
:10588000CDBF09942A88398848885F846E847D84D6
:105890008C849B84AA84B984C884DF80EE80FD80D8
:1058A0000C811B81AA81B981CE0FD11D0FB6F8944E
:1058B000DEBF0FBECDBFED01089512E0C4E0D2E01F
:1058C00004C0FE010E94172C2296C630D107C9F7EA
:0458D000F894FFCF7A
:1058D4002000203D200042656572005061727365AE
:1058E400642050726F66696C6520506F696E743AFB
:1058F4000020003A0054617267200041746D6F20EB
:10590400004265657220003A002000203D200046D8
:10591400726964676500555020427574746F6E2017
:10592400507265737365642000444F574E2042756E
:1059340074746F6E20507265737365642000424501
:10594400455220544553542050524F4752414D2004
:10595400004448542D445320544553542050524F2E
:105964004752414D2000554E4B4E4F574E00434F2A
:105974004F4C494E470048454154494E470049441D
:105984004C45005354415254555000444F4F525FBC
:105994004F50454E00465244475F434F4E535400C8
:1059A400424545525F434F4E535400424545525F72
:1059B40050524F464C0042656572002E0020007024
:1059C4000300002C010000011F1C1F1E1F1E1F1FAF
:1059D4001E1F1E1F000000007C0C73250000000029
:1059E4006D0E381100000000E5124514000000009F
:1059F400811451170000000018181F18000000003F
:105A04007919322200000000EA2473257E24AF2491
:045A14008F24D824DF
:00000001FF
